:020000040800F2
:1000000050040020AD01000813100008910F0008F3
:1000100011100008B90200082713000800000000B2
:1000200000000000000000000000000017100008A1
:10003000BB0200080000000015100008191000089D
:10004000C7010008C7010008C7010008C701000870
:10005000C7010008C7010008C7010008C701000860
:10006000C7010008C7010008C7010008C701000850
:10007000C7010008C7010008C7010008C701000840
:10008000C7010008C7010008C70100080000000000
:10009000000000000000000000000000C701000890
:1000A000C7010008C7010008C7010008C701000810
:1000B000B9100008C7010008C7010008C7010008FF
:1000C000C7010008C7010008C7010008C7010008F0
:1000D000C7010008C7010008C701000800000000B0
:1000E000C7010008C7010008C701000800000000A0
:1000F000000000000000000000000000C701000830
:1001000000000000C7010008C7010008C70100087F
:1001100000000000000000000000000000000000DF
:10012000C7010008C7010008C7010008C70100088F
:10013000C7010008000000000000000000000000EF
:10014000000000000000000000000000C7010008DF
:10015000C7010008C7010008C7010008C70100085F
:10016000C7010008C70100080000000000000000EF
:10017000000000000000000000000000000000007F
:1001800000000000C701000800000000000000009F
:10019000C7010008C7010008DFF80CD000F07AF8AA
:1001A00000480047691300085004002006488047B3
:1001B00006480047FEE7FEE7FEE7FEE7FEE7FEE74C
:1001C000FEE7FEE7FEE7FEE79D1000089901000844
:1001D0002DE9F05F0546002092469B46884606467C
:1001E000814640241BE0284641464746224600F00F
:1001F00041F853465A46C01A914110D31146184649
:10020000224600F028F82D1A67EB01084F462246D7
:100210000120002100F01FF817EB00094E41201EBD
:10022000A4F10104DFDC484631462A464346BDE8D6
:10023000F09FD2B201E000F8012B491EFBD27047BB
:100240000022F6E710B513460A4604461946FFF7A2
:10025000F0FF204610BD202A04DB203A00FA02F10C
:10026000002070479140C2F1200320FA03F31943A4
:1002700090407047202A04DB203A21FA02F0002146
:10028000704721FA02F3D040C2F1200291400843A6
:1002900019467047064C074D06E0E06840F0010340
:1002A00094E8070098471034AC42F6D3FFF778FF84
:1002B000E413000804140008FEE7704770B5044614
:1002C00000F0D8F80546601C02D0044800780444C9
:1002D00000F0D0F8401BA042FAD370BD000000200F
:1002E0002DE9F84F00224FF0010803254FF00F0EC3
:1002F0000B6808FA02F42340A34271D14E68012E24
:1003000005D0022E03D0112E01D0122E15D18668F1
:10031000570005FA07FC26EA0C06D1F80CC00CFAC7
:1003200007FC4CEA060CC0F808C04668A6430C79E6
:10033000C4F30014944034434460C668570005FA7F
:1003400007FC8C6826EA0C06BC403443C4604C6849
:10035000022C01D0122C13D1D40800EB8404A34644
:10036000D4F8209054074FEAD46A0EFA0AF629EA24
:1003700006090E6906FA0AF646EA0906CBF8206075
:1003800004680E7924EA0C0406F00306BE402643F6
:1003900006604C68E40056D52E4C266846F480462C
:1003A0002660246822F0030604F4804400942A4C5A
:1003B0003444A446D4F808489607370F0EFA07F6D7
:1003C000B443264EB04201D1002615E0244EB0427F
:1003D00001D1012610E0234EB04202D102260BE0EB
:1003E00031E0214EB04201D1032605E01F4EB0425C
:1003F00001D1042600E00726BE402643CCF8086859
:100400001B4E34684F689C43FF0300D51C43346087
:10041000174E361D34684F689C43BF0300D51C43FC
:100420003460134E083634684F689C43FF0200D591
:100430001C4334600E4E0C3634684F689C43BF0238
:1004400000D51C433460521C102AFFF451AFBDE8A4
:10045000F88F0000443802400030014000000240A4
:100460000004024000080240000C0240001002405C
:10047000003C0140014880687047000000000020F7
:1004800002488168027811448160704700000020B2
:100490000B4810B5016841F400710160016841F436
:1004A00080610160016841F480710160032000F007
:1004B0006FF8002000F006F800F024F8002010BDCE
:1004C000003C024070B50D4D04464FF47A71287817
:1004D000B1FBF0F00A490968B1FBF0F000F0E2FA74
:1004E00048B9102C07D200222146501E00F030F8E7
:1004F00000206C6070BD012070BD00000000002075
:100500000C0000200A4808B5016841F480410160F0
:10051000006800F4804000900548001F016841F029
:1005200080510160006800F08050009008BD00001C
:1005300044380240002809DB00F01F0201219140ED
:100540004009800000F1E020C0F800117047000071
:10055000F0B40E4B1B680C46C3F30223C3F107052E
:10056000042D00D90425191D072901D2002300E01C
:10057000DB1E012606FA05F1491E214099409E40E6
:10058000761E16403143F0BC00F0CEBE0CED00E00C
:10059000064900F0070208684FF6FF03184040EADA
:1005A0000220034A10430860704700000CED00E091
:1005B0000000FA052DE9F0470E46050065D0DFF88A
:1005C0001481D8F80000F7B200F00F00B04207D253
:1005D00088F80070D8F8000000F00F00B04254D145
:1005E00028683D4C810712D5400703D5206840F4A8
:1005F000E05020602878000703D5206840F4604070
:1006000020602068A96820F0F00008432060287866
:10061000C0072DD0304968680839012812D0022857
:1006200013D0032811D00968890700292DDA216821
:1006300021F0030101432160FFF71CFF814641F2D5
:10064000883A0EE009688903EFE709688901ECE759
:10065000FFF710FFA0EB0901514502D90320BDE8C7
:10066000F0872068696800F00C00B0EB810FEFD1D3
:10067000D8F80010404601F00F01B14207D90770C9
:10068000006800F00F00B04201D00120E7E72878B1
:10069000400705D52068E96820F4E0500843206051
:1006A0002878000706D52068296920F4604040EAD0
:1006B000C100206000F018F82168084AC1F3031156
:1006C000515CC8400649086006480068FFF7FAFE1A
:1006D0000020C4E7003C024008380240D413000860
:1006E0000C00002004000020154810B5006810F030
:1006F0000C02144813D04110042A0FD0082A0ED13E
:100700000F4C241F2268236802F03F025B0207D5CA
:100710002068C0F38810A0FB010106E0084610BD68
:100720002168C1F38811A1FB00010023FFF750FDF0
:100730002168C1F30141491C4900B0FBF1F010BD33
:10074000083802400024F4002DE9F84F040076D068
:100750002078DFF838A3CE4DC00749D0DAF8001072
:100760005046C1F38101012908D00068C0F381001F
:1007700002280AD1281D0068400206D52868800397
:1007800036D560680028E2D032E06068B0F5803F7E
:1007900010D0B0F5A02F286810D020F48030286049
:1007A000286820F4802028606068A0B1FFF762FE0E
:1007B00006460CE0286840F48030F4E740F48020DE
:1007C0002860F7E7FFF756FE801B642873D8286877
:1007D0008003F7D50CE0FFF74DFE064605E000BFAD
:1007E000FFF748FE801B6428F0D828688003F7D400
:1007F0002078DFF8A08280074FF000093ED5DAF8B4
:100800000010504611F00C0F09D00068C0F38100B1
:1008100002280BD19D48001F0068400206D42868BA
:10082000800715D5E068012809D111E0E068B8B16A
:100830000120C8F80000FFF71DFE064605E020E194
:10084000FFF718FE801B0228C0D828688007F7D55C
:100850002868216920F0F80040EAC10028600DE016
:10086000C8F80090FFF706FE064604E0FFF702FE18
:10087000801B02281FD828688007F7D4207800073B
:1008800022D5824E844861696C3671B101210160C4
:10089000FFF7F0FD074604E0FFF7ECFDC01B022860
:1008A00009D830688007F7D50EE0C0F80090FFF750
:1008B000E1FD074605E082E0FFF7DCFDC01B0228F2
:1008C0007DD830688007F7D42078400768D5DFF8F6
:1008D000BCB100270BF1380BDBF80000C0000BD4D3
:1008E000DBF8001041F08051CBF80010DBF800007D
:1008F000012700F080500090684E3068C00510D489
:10090000306840F480703060FFF7B4FD009005E07F
:10091000FFF7B0FD0099401A022850D83068C00592
:10092000F6D55A4EA068683601280FD005283068E1
:1009300010D020F001003060306820F004003060FA
:10094000A068B8B1FFF796FD00900FE0306840F066
:100950000100F4E740F004003060F7E7FFF78AFD9C
:100960000099411A41F28830814266D83068800788
:10097000F4D50EE0FFF77EFD009007E0FFF77AFD6B
:100980000099411A41F28830814256D83068800778
:10099000F4D42FB1DBF8001021F08051CBF8001017
:1009A000A069D0B3DAF800205146C2F38102022ACE
:1009B0004AD00228484607D0C8F8600000E03CE072
:1009C000FFF758FD04463BE04746C8F86000FFF7D4
:1009D00051FD064605E000BFFFF74CFD801B0228D5
:1009E0002BD828688001F7D4D4E907010843A16A0D
:1009F0002B4A490802EB0141626A41EA821108432D
:100A000094F82C1040EA01612048001F0160012089
:100A10003866FFF72FFD044605E034E0FFF72AFDB6
:100A2000001B022809D828688001F7D52BE000BFF9
:100A3000FFF720FD001B022802D90320BDE8F88F34
:100A400028688001F4D41EE00128F7D00868E26924
:100A500000F48001914214D1226A00F03F019142DA
:100A60000FD147F6C071626A0140914209D1A26A72
:100A700000F44031914204D1E16A00F07060884294
:100A800001D00120DAE70020D8E700000838024052
:100A90000038024000004742800E4742007000408C
:100AA0000000FFFF10B5401EB0F1807F01D3012090
:100AB00010BD4FF0E02460610F21601700F034FC9E
:100AC0000020A06107202061002010BD7047704702
:100AD00070B590F83C20012A2CD0012480F83C40CD
:100AE000022280F83D2003685A689D6822F0700653
:100AF0000A6832435A60104B02689A420ED0B2F133
:100B0000804F0BD00D4B9A4208D00D4B9A4205D026
:100B10000C4B9A4202D00C4B9A4204D1496825F002
:100B200080031943916080F83D40002180F83C101B
:100B3000084670BD022070BD000001400004004066
:100B400000080040000C00400040014010B50400C7
:100B500003D094F83D0010B107E0012010BD002043
:100B600084F83C00204600F00DF8022084F83D0097
:100B7000211D206800F0A6FA012084F83D00002025
:100B800010BD000008B50068B0F1804F12D10A48CE
:100B9000016841F0010101600068002200F00100DD
:100BA000009011461C20FFF7D3FCBDE808401C2034
:100BB000FFF7C0BC08BD00004038024070B50446D5
:100BC00090F83C00012817D0012584F83C50022001
:100BD00084F83D002068826822F0770222F47F4288
:100BE00082600868502830D00DDC20284DD005DC0C
:100BF00098B310283BD148E0022070BD302844D083
:100C0000402834D139E0602828D0702806D0B0F5CB
:100C1000805F2CD0B0F5005F29D10AE0CB68D1E924
:100C20000121206800F0A7FA2068816841F077016F
:100C300009E0CB68D1E90121206800F09CFA206826
:100C4000816841F48041816011E0CA684968206888
:100C500000F046FB5021206807E016E0CA684968AA
:100C6000206800F04EFB6021206800F08EFA84F8C6
:100C70003D50002084F83C0070BDCA684968206877
:100C800000F02EFB40212068EFE722680146104665
:100C9000EBE7704770B50446006801694FF0000546
:100CA000C943890715D4C168C943890711D4E91E0E
:100CB000016101202077206880698007204602D0EA
:100CC000FFF7E7FF04E000F0BFF8204600F041F92D
:100CD000257720680169C943490717D4C168C9430A
:100CE000490713D46FF004010161022020772068C6
:100CF000806910F4407F204602D0FFF7CAFF04E06D
:100D000000F0A2F8204600F024F925772068016958
:100D1000C943090716D4C168C943090712D46FF043
:100D200008010161042020772068C06980072046FF
:100D300002D0FFF7AEFF04E000F086F8204600F096
:100D400008F9257720680169C943C90617D4C16825
:100D5000C943C90613D46FF0100101610820207740
:100D60002068C06910F4407F204602D0FFF791FF51
:100D700004E000F069F8204600F0EBF825772068E1
:100D80000169C943C90708D1C168C943C90704D16A
:100D9000891E0161204600F0F9F820680169C94305
:100DA000090609D4C168C943090605D46FF080015A
:100DB00001612046FFF78AFE20680169C9434906A0
:100DC00009D4C168C943490605D46FF040010161E7
:100DD000204600F0DCF820680169C94389060BD47D
:100DE000C168C943890607D46FF02001016120461C
:100DF000BDE87040FFF76BBE70BD000010B586B057
:100E0000044614216846FFF71BFA2068B0F1804FB2
:100E100014D10B480021026842F001020260006810
:100E2000022200F00100059001200090CDE901218F
:100E3000CDE9031069460348FFF752FA06B010BD2A
:100E40003038024000000240704770B5044690F808
:100E50003C000D4601280DD0012684F83C6002209C
:100E600084F83D0042B1042A18D0082A2AD00C2A5E
:100E70004DD139E0022070BD206800F08FF9206864
:100E8000816941F0080181612068816921F00401D4
:100E90008161206881692A69114311E0206800F0AE
:100EA000A5F92068816941F4006181612068816948
:100EB00021F480618161206881692A6941EA022107
:100EC000816124E0206800F0BDF92068C16941F02B
:100ED0000801C1612068C16921F00401C161206875
:100EE000C1692A69114311E0206800F0D7F9206830
:100EF000C16941F40061C1612068C16921F4806168
:100F0000C1612068C1692A6941EA0221C16184F88E
:100F10003D60002084F83C0070BD10B5040003D093
:100F200094F83D0010B107E0012010BD002084F8C6
:100F30003C00204600F00CF8022084F83D00211D02
:100F4000206800F0BFF8012084F83D00002010BDAB
:100F50007047704710B504460068012200F0FEF8A3
:100F600009492068884203D1416C41F40041416441
:100F70002068816801F00701062903D0016841F06B
:100F800001010160002010BD000001407047704762
:100F9000FEE7000010B58EB0002407940894099471
:100FA0000A940B941C2168460C94FFF749F91748E2
:100FB0004FF08041016040F28331C0E9011440F2FA
:100FC000E731C0E903148461FFF7C0FD4FF480509E
:100FD000079007A90D48FFF7F1FD0C48FFF79DFFAB
:100FE0000B940BA909480C94FFF772FD6020CDE922
:100FF000000402940022694604480494FFF725FF88
:101000000248FFF7FBFE0EB010BD000010000020EC
:10101000FEE7704770477047FFF732BA30B593B0BC
:1010200030216846FFF70CF914210CA8FFF708F9E6
:1010300018480025016841F080510160006800F007
:10104000805011901448016841F4404101600068EB
:10105000022400F44040119001200090000401900F
:101060008001CDE9064008AA04205A2182E8130035
:101070000B906846FFF768FB0CA90F2081E8310050
:101080004FF4A050CDE90F0502210CA8FFF792FA0A
:1010900013B030BD40380240007000400548016880
:1010A00041F47001016003494FF00060803908602D
:1010B0007047000088ED00E00148FFF7EBBD00003D
:1010C00010000020F0B502681D4B1E4C9F031E4D02
:1010D0001E4E984207D0B84205D0A04203D0A84285
:1010E00001D0B04204D122F0700C4A6842EA0C02EE
:1010F000984210D0B8420ED0A0420CD0A8420AD0DC
:10110000B04208D0124CA04205D0124CA04202D0EE
:10111000114CA04203D122F44074CA6822434C69A6
:1011200022F08002224302608A68C2620A688262F8
:10113000984201D10969016301214161F0BD0000BC
:10114000000001400004004000080040000C004086
:1011500000400140004401400048014010B501F04A
:101160001F030121046A99408C430462016A9A407A
:101170001143016210BD10B5846842EA032224F4D1
:101180007F440A432243826010BD826822F07002CD
:101190000A4342F0070181607047000030B5026ADF
:1011A00022F001020262026A4368846924F0730536
:1011B0000C682C4322F002058A682A430A4DA84293
:1011C0000BD122F00805CA6823F440732A434D6905
:1011D00022F004021D438B692B43436084614968FC
:1011E0004163026230BD00000000014030B5026A78
:1011F00022F010020262026A436884690D6824F4D6
:10120000E64444EA05248D6822F0200242EA0512F1
:101210000B4DA8420ED1CD6822F0800242EA0512A1
:101220004D6923F4406343EA85038D6922F040024F
:1012300043EA85034360846149688163026230BD8B
:101240000000014030B5026A22F480720262036A33
:101250004268C46923F4007324F073050C682C43BE
:101260008D6843EA05230C4DA8420ED1CD6823F4C6
:10127000006343EA05234D6922F4405242EA051215
:101280008D6923F4806342EA05124260C4614968B3
:10129000C163036230BD00000000014030B5026A46
:1012A00022F480520262046A4268C3690D6823F422
:1012B000E64343EA05238D6824F4005444EA0534E8
:1012C000064DA84204D14D6922F4804242EA8512BB
:1012D0004260C36149680164046230BD000001409E
:1012E00010B5036A046A24F001040462846924F0DE
:1012F000F00444EA021423F00A020A438461026201
:1013000010BD10B5036A23F0100303628369046AF9
:1013100023F4704343EA023224F0A00343EA0111AC
:101320008261016210BDFEE70907090E002804DB97
:1013300000F1E02080F80014704700F00F0000F189
:10134000E02080F8141D704702E008C8121F08C191
:10135000002AFAD170477047002001E001C1121F36
:10136000002AFBD17047000008B5FFF791F8FFF79E
:1013700055FE1648016841F080010160016801F0E6
:1013800080010091016841F001010160006800F0F6
:1013900001000090FFF7FEFD00210D48FFF7DAFD88
:1013A0000B4C02261925206845633046FEF786FF60
:1013B0006D1C7E2DF7DB7E25206845633046FEF7E9
:1013C0007DFF6D1E182DF7DCEBE700003038024082
:1013D00010000020000000000000000001020304D3
:1013E000060708090414000800000020100000008F
:1013F00048130008141400081000002040040000E6
:101400005813000801000000100000000000000058
:041410000024F400C0
:040000050800019955
:00000001FF
