:020000040800F2
:1000000060040020A901000843100008890F0008BF
:1000100041100008DD030008DD10000800000000AA
:100020000000000000000000000000004710000871
:10003000DF03000800000000451000084910000818
:10004000C3010008C3010008C3010008C301000880
:10005000C3010008C3010008C3010008C301000870
:10006000C3010008C3010008C3010008C301000860
:10007000C3010008C3010008C3010008C301000850
:10008000C3010008C3010008C3010008000000000C
:10009000000000000000000000000000C301000894
:1000A000C3010008C3010008C3010008C301000820
:1000B000C3010008C3010008C3010008C301000810
:1000C000C3010008C3010008C3010008C301000800
:1000D000C3010008C3010008C301000800000000BC
:1000E000C3010008C3010008C301000800000000AC
:1000F000000000000000000000000000C301000834
:1001000000000000C3010008C3010008C30100088B
:1001100000000000000000000000000000000000DF
:10012000C3010008C3010008C3010008C30100089F
:10013000C3010008000000000000000000000000F3
:10014000000000000000000000000000C3010008E3
:10015000C3010008C3010008C3010008C30100086F
:10016000C3010008C30100080000000000000000F7
:10017000000000000000000000000000000000007F
:1001800000000000C30100080000000000000000A3
:10019000C3010008DFF80CD000F07AF800480047EF
:1001A0001D110008600400200648804706480047EB
:1001B000FEE7FEE7FEE7FEE7FEE7FEE7FEE7FEE717
:1001C000FEE7FEE7C1100008950100082DE9F05F89
:1001D0000546002092469B468846064681464024B6
:1001E0001BE0284641464746224600F041F8534668
:1001F0005A46C01A914110D311461846224600F0C3
:1002000028F82D1A67EB01084F46224601200021ED
:1002100000F01FF817EB00094E41201EA4F1010465
:10022000DFDC484631462A464346BDE8F09FD2B25D
:1002300001E000F8012B491EFBD270470022F6E7CF
:1002400010B513460A4604461946FFF7F0FF20464C
:1002500010BD202A04DB203A00FA02F1002070478A
:100260009140C2F1200320FA03F3194390407047F4
:10027000202A04DB203A21FA02F00021704721FAFB
:1002800002F3D040C2F12002914008431946704762
:10029000064C074D06E0E06840F0010394E80700D3
:1002A00098471034AC42F6D3FFF778FF6C11000882
:1002B0008C110008464910B54A6822F440324A6061
:1002C0004A6843681A434A6001684A6822F48072A7
:1002D0004A6001684A68036942EA03224A60016889
:1002E0004A6822F040724A6001684A6883681A438B
:1002F0004A6001688A6822F400628A6001688A683C
:10030000C3681A438A60816A6FF07062D1420168E3
:100310008A6822F070628A6001688A680CD0836AF9
:100320001A438A6001688A6822F040528A60016834
:100330008A68C36A1A4301E022F040528A60016869
:100340008A6822F002028A6001688A68037E42EAB3
:1003500043028A6090F82010002901684A680FD093
:1003600042F400624A6001684A6822F460424A60CE
:1003700001684A68174C436A04EB43331A4301E0AF
:1003800022F400624A600168CA6A22F47002CA62FA
:100390000168CA6A838B104C04EB03531A43CA6288
:1003A00001688A6822F400728A6001688A6890F89D
:1003B000303042EA43228A6001688A6822F480620F
:1003C0008A6001688A68406942EA8020886010BDBE
:1003D0000023014000E0FFFF0000F0FFFEE7704750
:1003E00078B50024009490F83C20012A19D001220D
:1003F00080F83C200A6807230568092A13D9EE68AB
:100400000A3A02EB420293409E43EE600B788A6800
:100410000A3B03EB43039A400368DD682A43DA6032
:1004200010E0022078BD2E6902EB420293409E4309
:100430002E610B788A6803EB43039A4003681D69B9
:100440002A431A614A681F23072A13D205686E6B74
:10045000521E02EB820293409E436E630B790A8820
:100460005B1E92B203EB83039A4003685D6B2A43E1
:100470005A6327E005680D2A12D22E6BD21F02EBB9
:10048000820293409E432E630B790A88DB1F92B24F
:1004900003EB83039A4003681D6B2A431A6311E040
:1004A000EE6A0D3A02EB820293409E43EE620B79B4
:1004B0000A880D3B92B203EB83039A400368DD6A1E
:1004C0002A43DA62164B0568144A9D4206D10D682C
:1004D000122D03D1556845F48005556005689D428D
:1004E00018D10B68102B01D0112B13D1536843F492
:1004F00000035360096810290CD10A490A4A0968A7
:10050000B1FBF2F101EB8101490000E0491E0091CD
:100510000029FBD180F83C40002078BD0023014039
:10052000002001401000002040420F000068C06C15
:10053000704770B504004FF0000503D0206C002612
:1005400010B107E0012070BD204600F01DF8666480
:1005500084F83C60206CC00610D4206C20F48850D5
:1005600040F0020020642046FFF7A4FE6664206C81
:1005700020F0020040F00100206400E0012584F832
:100580003C60284670BD000010B586B004461421BA
:100590006846FFF753FE1149206888421CD1104875
:1005A0000021026842F480720260006800F48070EA
:1005B00005900B481438026842F00102026000689E
:1005C00000F001000590012000900320CDE9010119
:1005D0006946044800F0E8F806B010BD002001406C
:1005E00044380240000002402DE9F0410446006812
:1005F0000D4681684FF0000749050BD58068C0059E
:1006000008D5206C40F02000206484F83C70012064
:10061000BDE8F08100F098F906460FE0681C0DD0A7
:1006200025B100F091F9801BA84207D9206C40F059
:100630000400206484F83C700320E9E72068006827
:100640008007EBD521686FF012000860206C40F441
:10065000007020642068816811F0405F13D1217E12
:1006600089B9C16A11F4700F02D0806840050AD4BC
:10067000206C20F480702064206CC00403D4206CB3
:1006800040F0010020640020C2E7000018B50021FE
:10069000009190F83C20012A07D0012280F83C20EC
:1006A00002689368DB0702D011E0022018BD93684E
:1006B00043F001039360204A204B1268B2FBF3F22F
:1006C00002EB420200E0521E0092002AFBD10268B7
:1006D0009368DB072DD0036C40F20164A34343F41D
:1006E0008073036453685B0505D5036C23F40053E2
:1006F00043F480530364036CDB0404D5436C23F0A0
:100700000603436400E0416480F83C100C496FF03C
:100710002203136049680068C90602D0094988426B
:1007200007D1816811F0405F03D1816841F08041B9
:100730008160002018BD00001000002040420F0022
:10074000002301400020014090F83C1001290CD00A
:10075000012180F83C1001688A6822F001028A6059
:1007600001688968C90702D007E002207047016C60
:1007700021F4885141F001010164002180F83C100E
:100780000846704770B5044600F0DEF80546601C68
:1007900002D004480078044400F0D6F8401BA04280
:1007A000FAD370BD040000202DE9F84F00224FF06D
:1007B000010803254FF00F0E0B6808FA02F42340DE
:1007C000A34271D14E68012E05D0022E03D0112E06
:1007D00001D0122E15D18668570005FA07FC26EACB
:1007E0000C06D1F80CC00CFA07FC4CEA060CC0F859
:1007F00008C04668A6430C79C4F3001494403443FF
:100800004460C668570005FA07FC8C6826EA0C06A7
:10081000BC403443C4604C68022C01D0122C13D16C
:10082000D40800EB8404A346D4F8209054074FEA80
:10083000D46A0EFA0AF629EA06090E6906FA0AF6D9
:1008400046EA0906CBF8206004680E7924EA0C0415
:1008500006F00306BE40264306604C68E40056D509
:100860002E4C266846F480462660246822F0030653
:1008700004F4804400942A4C3444A446D4F8084834
:100880009607370F0EFA07F6B443264EB04201D151
:10089000002615E0244EB04201D1012610E0234E7F
:1008A000B04202D102260BE031E0214EB04201D12C
:1008B000032605E01F4EB04201D1042600E00726C2
:1008C000BE402643CCF808681B4E34684F689C43F2
:1008D000FF0300D51C433460174E361D34684F6843
:1008E0009C43BF0300D51C433460134E0836346864
:1008F0004F689C43FF0200D51C4334600E4E0C36FB
:1009000034684F689C43BF0200D51C433460521CBE
:10091000102AFFF451AFBDE8F88F000044380240C0
:100920000030014000000240000402400008024084
:10093000000C024000100240003C01400AB18161FD
:1009400070470904FBE70000014880687047000019
:1009500004000020024881680278114481607047D9
:10096000040000200B4810B5016841F400710160DB
:10097000016841F480610160016841F480710160A7
:10098000032000F061F8002000F006F800F024F8E1
:10099000002010BD003C024070B50D4D04464FF4E0
:1009A0007A712878B1FBF0F00A490968B1FBF0F0E0
:1009B00000F0D6FA48B9102C07D200222146501E6A
:1009C00000F022F800206C6070BD012070BD0000B6
:1009D00004000020100000200A4808B5016841F416
:1009E00080410160006800F4804000900548001FCD
:1009F000016841F080510160006800F08050009073
:100A000008BD000044380240F0B40E4B1B680C4691
:100A1000C3F30223C3F10705042D00D90425191DD2
:100A2000072901D2002300E0DB1E012606FA05F1AA
:100A3000491E214099409E40761E16403143F0BC2D
:100A400000F04DBB0CED00E0064900F0070208681D
:100A50004FF6FF03184040EA0220034A10430860A3
:100A6000704700000CED00E00000FA052DE9F047AA
:100A70000E46050065D0DFF81481D8F80000F7B203
:100A800000F00F00B04207D288F80070D8F80000DC
:100A900000F00F00B04254D128683D4C810712D5B8
:100AA000400703D5206840F4E05020602878000714
:100AB00003D5206840F4604020602068A96820F0D9
:100AC000F000084320602878C0072DD030496868BE
:100AD0000839012812D0022813D0032811D0096840
:100AE000890700292DDA216821F0030101432160E3
:100AF000FFF72AFF814641F2883A0EE00968890330
:100B0000EFE709688901ECE7FFF71EFFA0EB090199
:100B1000514502D90320BDE8F0872068696800F0DC
:100B20000C00B0EB810FEFD1D8F80010404601F077
:100B30000F01B14207D90770006800F00F00B04202
:100B400001D00120E7E72878400705D52068E9684B
:100B500020F4E050084320602878000706D520687C
:100B6000296920F4604040EAC100206000F018F8D4
:100B70002168084AC1F30311515CC8400649086066
:100B800006480068FFF708FF0020C4E7003C024069
:100B9000083802405C110008100000200800002006
:100BA000154810B5006810F00C02144813D0144911
:100BB000042A0FD0082A0ED10F4C241F2268236864
:100BC00002F03F025B0207D52068C0F38810A0FB4B
:100BD000010106E0084610BD2168C1F38811A1FBA0
:100BE00000010023FFF7F2FA2168C1F30141491C1B
:100BF0004900B0FBF1F010BD083802400024F400B9
:100C000040787D012DE9F84F040076D02078DFF898
:100C100038A3CE4DC00749D0DAF800105046C1F3D2
:100C20008101012908D00068C0F3810002280AD19F
:100C3000281D0068400206D52868800336D5606804
:100C40000028E2D032E06068B0F5803F10D0B0F507
:100C5000A02F286810D020F480302860286820F465
:100C6000802028606068A0B1FFF76EFE06460CE0A9
:100C7000286840F48030F4E740F480202860F7E7EB
:100C8000FFF762FE801B642873D828688003F7D5BD
:100C90000CE0FFF759FE064605E000BFFFF754FEE3
:100CA000801B6428F0D828688003F7D42078DFF808
:100CB000A08280074FF000093ED5DAF800105046B8
:100CC00011F00C0F09D00068C0F3810002280BD18D
:100CD0009D48001F0068400206D42868800715D58B
:100CE000E068012809D111E0E068B8B10120C8F836
:100CF0000000FFF729FE064605E020E1FFF724FE8D
:100D0000801B0228C0D828688007F7D52868216989
:100D100020F0F80040EAC10028600DE0C8F800901B
:100D2000FFF712FE064604E0FFF70EFE801B0228C6
:100D30001FD828688007F7D42078000722D5824E74
:100D4000844861696C3671B101210160FFF7FCFDD7
:100D5000074604E0FFF7F8FDC01B022809D83068F9
:100D60008007F7D50EE0C0F80090FFF7EDFD0746CD
:100D700005E082E0FFF7E8FDC01B02287DD830685F
:100D80008007F7D42078400768D5DFF8BCB100278A
:100D90000BF1380BDBF80000C0000BD4DBF80010BF
:100DA00041F08051CBF80010DBF80000012700F083
:100DB00080500090684E3068C00510D4306840F410
:100DC00080703060FFF7C0FD009005E0FFF7BCFDCC
:100DD0000099401A022850D83068C005F6D55A4EFE
:100DE000A068683601280FD00528306810D020F0A0
:100DF00001003060306820F004003060A068B8B1B5
:100E0000FFF7A2FD00900FE0306840F00100F4E72A
:100E100040F004003060F7E7FFF796FD0099411AB3
:100E200041F28830814266D830688007F4D50EE000
:100E3000FFF78AFD009007E0FFF786FD0099411A51
:100E400041F28830814256D830688007F4D42FB1FF
:100E5000DBF8001021F08051CBF80010A069D0B36E
:100E6000DAF800205146C2F38102022A4AD0022851
:100E7000484607D0C8F8600000E03CE0FFF764FD9A
:100E800004463BE04746C8F86000FFF75DFD0646B4
:100E900005E000BFFFF758FD801B02282BD828680B
:100EA0008001F7D4D4E907010843A16A2B4A490815
:100EB00002EB0141626A41EA8211084394F82C1066
:100EC00040EA01612048001F016001203866FFF7F9
:100ED0003BFD044605E034E0FFF736FD001B022829
:100EE00009D828688001F7D52BE000BFFFF72CFD5B
:100EF000001B022802D90320BDE8F88F2868800172
:100F0000F4D41EE00128F7D00868E26900F48001FB
:100F1000914214D1226A00F03F0191420FD147F66D
:100F2000C071626A0140914209D1A26A00F4403165
:100F3000914204D1E16A00F07060884201D0012042
:100F4000DAE70020D8E70000083802400038024005
:100F500000004742800E4742007000400000FFFF43
:100F600010B5401EB0F1807F01D3012010BD4FF0BD
:100F7000E02460610F21601700F0B1F80020A0614B
:100F800007202061002010BDFEE700007FB500248F
:100F900011480094019402940E490394C0E900148E
:100FA0004FF0007104618160047680F820400B49A5
:100FB000C0E90A140125C561C46080F8304045616C
:100FC000FFF7B7FACDE90045694603480294FFF7F9
:100FD00007FA7FBD00200140140000200100000F2F
:100FE00070B586B014216846FFF728F9124800242E
:100FF000016841F001010160016801F00101059102
:10100000016841F00801016000680C4E00F0080022
:101010004FF470450590224629463046FFF78EFC76
:1010200001200095CDE90104694630460394FFF79D
:10103000BBFB06B070BD000030380240000C02401F
:10104000FEE7704770477047FFF784BC10B592B059
:1010500030216846FFF7F2F814210CA8FFF7EEF8EC
:1010600015480024016841F080510160006800F0DB
:10107000805011901148016821F4404141F4004131
:1010800001600068069400F4404011900220009036
:1010900001200390102004906846FFF7B3FD0F2055
:1010A000CDE90C040E940F9400210CA81094FFF7C6
:1010B000DDFC12B010BD000040380240007000405E
:1010C0000548016841F47001016003494FF0006078
:1010D000803908607047000088ED00E0FEE70907EE
:1010E000090E002804DB00F1E02080F800147047AE
:1010F00000F00F0000F1E02080F8141D704702E0BE
:1011000008C8121F08C1002AFAD170477047002092
:1011100001E001C1121F002AFBD17047FFF722FC3A
:10112000FFF794FFFFF75CFFFFF730FF094C0A4819
:10113000FFF7ACFA05210848FFF756FA18B9064838
:10114000FFF7F4F920600448FFF7FEFA6420FFF788
:1011500019FBECE700000020140000200000000054
:101160000000000001020304060708098C110008B2
:101170000000002014000000FE100008A01100086C
:10118000140000204C0400000E11000800000000B4
:101190000100000010000000000000000024F40026
:040000050800019559
:00000001FF
