:020000040800F2
:1000000080040020D9010008EB13000897130008B2
:10001000E913000869050008D71500080000000072
:10002000000000000000000000000000EF130008C6
:100030006B05000800000000ED130008F113000834
:10004000F3010008F3010008F3010008F3010008C0
:10005000F3010008F3010008F3010008F3010008B0
:10006000F3010008F3010008F3010008F3010008A0
:10007000F3010008F3010008F3010008F301000890
:10008000F3010008F3010008F3010008F301000880
:10009000F3010008F3010008F3010008F301000870
:1000A000F3010008F3010008F3010008F301000860
:1000B00099140008F3010008F3010008F301000897
:1000C000F3010008F3010008F3010008F301000840
:1000D000F3010008F3010008F3010008F301000830
:1000E000F3010008F3010008F3010008F301000820
:1000F000F3010008F3010008F3010008F301000810
:10010000F3010008F3010008F3010008F3010008FF
:10011000F3010008F3010008F3010008F3010008EF
:10012000F3010008F3010008F3010008F3010008DF
:10013000F30100080000000000000000F3010008C7
:10014000F3010008F3010008F3010008F3010008BF
:10015000F3010008F3010008F3010008F3010008AF
:10016000F3010008F3010008F3010008F30100089F
:10017000F3010008F3010008F3010008000000008B
:1001800000000000F3010008000000000000000073
:10019000F30100080000000000000000F301000867
:1001A000000000000000000000000000F301000853
:1001B000F3010008F3010008F3010008F30100084F
:1001C000F3010008DFF80CD000F0BCF9004800474C
:1001D0005919000880040020064880470648004757
:1001E000FEE7FEE7FEE7FEE7FEE7FEE7FEE7FEE7E7
:1001F000FEE7FEE77D140008C50100082DE9F05F69
:100200000546002092469B46884606468146402485
:100210001BE0284641464746224600F0EFF8534689
:100220005A46C01A914110D311461846224600F092
:10023000D6F82D1A67EB01084F462246012000210F
:1002400000F0CDF817EB00094E41201EA4F1010487
:10025000DFDC484631462A464346BDE8F09FD2B22D
:1002600001E000F8012B491EFBD270470022F6E79F
:1002700010B513460A4604461946FFF7F0FF20461C
:1002800010BD2DE9FE4F81EA030404F0004421F083
:10029000004100944FF0000B23F0004350EA0104AA
:1002A0005ED052EA03045BD0C3F30A54C1F30A558B
:1002B0002C44A4F2F3340194A0FB0254C1F31301C3
:1002C00041F48011C3F3130343F4801301FB024490
:1002D00000FB034E840A970A44EA815447EA835795
:1002E000A4FB076802958D0A05FB07854FEA932C4E
:1002F00004FB0C542705029D4FEA065847EA1637BF
:10030000B5EB08056EEB070C870E920E47EA8117D6
:1003100042EA8312A7FB0201B6EB0B0164EB000477
:100320002B0D43EA0C335E1844EB1C50DA46514661
:10033000E7FB0201C5F313044FEA0B3343EA1453FE
:100340004FEA0432019C43EA0603A4F10C04029430
:10035000009CCDE900B400F0A7F803B0BDE8F08F31
:1003600000200146F9E70EB540F233410291002129
:10037000CDE900110A460B4600F096F803B000BD27
:1003800000F0004230F000400AD0C10D01F560716C
:10039000C0F3160042EA0151C208400711437047FA
:1003A00000200146704701F0004330B421F00041C5
:1003B00050EA010206D00A0DA2F56072C1F31301E2
:1003C000002A02DC30BC00207047440F44EAC1041C
:1003D000C100E01830BC00EBC25000F01FB8202A6A
:1003E00004DB203A00FA02F1002070479140C2F18C
:1003F000200320FA03F3194390407047202A04DBBE
:10040000203A21FA02F00021704721FA02F3D0408D
:10041000C2F1200291400843194670470029A8BF45
:100420007047401C490008BF20F00100704710B41D
:10043000B0FA80FC00FA0CF050EA010404BF10BCD2
:10044000704749B1CCF1200421FA04F411FA0CF1FF
:1004500018BF012121430843A3EB0C01CB1D4FEA38
:1004600000614FEA102042BF002010BC704700EB33
:10047000C35010440029A4BF10BC7047401C490061
:1004800008BF20F0010010BC704710B5141E73F1B6
:10049000000408DA401C41F1000192185B411A4344
:1004A00001D120F0010010BD2DE9F04D92469B4690
:1004B00011B1B1FA81F202E0B0FA80F22032904636
:1004C000FFF78DFF04460F4640EA0A0041EA0B01A0
:1004D00053465A46084313D0114653EA010019D037
:1004E000C8F140025046FFF789FF05460E465046C8
:1004F00059464246FFF773FF084305D0012004E048
:1005000020463946BDE8F08D0020054346EAE076F6
:100510002C4337430A986305E40AA0EB0800002245
:10052000FD0A44EA47540A3002D500200146E9E7B3
:10053000010510196941DDE9084500196941BDE867
:10054000F04DA2E7064C074D06E0E06840F00103DD
:1005500094E8070098471034AC42F6D3FFF736FE14
:100560006C1A00088C1A0008FEE7704770B54379D2
:10057000012B1AD0012646710223037105682C68ED
:1005800040F6FE7393409C43D1E900310B43934006
:1005900023432B6001680B68C0249440A3430B6085
:1005A000067100214171084670BD022070BD70B512
:1005B000040003D02079002510B105E0012070BDB2
:1005C0006571204600F008F80220207125610120A5
:1005D0002071002070BD000010B586B004461421C3
:1005E0006846FFF743FE1149206888421CD1104835
:1005F0000021026842F000520260006800F00050E2
:1006000005900B481038026842F001020260006851
:1006100000F001000590102000900320CDE90101B9
:100620006946044800F05EF806B010BD0074004052
:10063000403802400000024018B504680094006889
:10064000104421B1143000900360002018BD083020
:10065000F9E730B54279012A16D00122427102230E
:10066000037103681D6802FA01F425431D60002927
:1006700001680B680AD00C6803F4802304F460144A
:10068000B3F5802F0FD015E0022030BD0C6803F0C9
:10069000040304F03804042B0CD1382C0AD14B6825
:1006A00043F0010305E0B4F5601F03D14B6843F04C
:1006B00002034B60027100214171084630BD000009
:1006C00070B5044600F0E2F80546601C02D004480C
:1006D0000078044400F0DAF8401BA042FAD370BD61
:1006E000180000202DE9F84F00224FF001080325E3
:1006F0004FF00F0E0B6808FA02F42340A3426ED1AC
:100700004E68012E05D0022E03D0112E01D0122EDC
:1007100012D186684FEA420C05FA0CF7BE43CF6847
:1007200007FA0CF7374387604668A6430C79C4F391
:100730000014944034434460C668570005FA07FC2F
:100740008C6826EA0C06BC403443C4604C68022C1A
:1007500001D0122C13D1D40800EB8404A346D4F8A2
:10076000209054074FEAD46A0EFA0AF629EA0609DD
:100770000E6906FA0AF646EA0906CBF82060066812
:100780000C7926EA0C0604F00304BC4034430460F0
:100790004C68E40060D5334C266846F480462660F9
:1007A000246822F0030604F4804400942E4C344460
:1007B000A446D4F808489607370F0EFA07F6B44354
:1007C0002A4EB04201D100261FE0294EB04201D18D
:1007D00001261AE0274EB04202D1022615E03BE086
:1007E000254EB04201D103260FE0244EB04201D184
:1007F00004260AE0224EB04201D1052605E0214E32
:10080000B04201D1062600E00726BE402643CCF8C0
:1008100008681D4E34684F689C43FF0300D51C4395
:100820003460194E361D34684F689C43BF0300D5B1
:100830001C433460144E083634684F689C43FF02F2
:1008400000D51C433460104E0C3634684F689C430E
:10085000BF0200D51C433460521C102AFFF44AAF7B
:10086000BDE8F88F443802400030014000000240EB
:100870000004024000080240000C02400010024048
:100880000014024000180240003C0140014880680A
:100890007047000018000020024881680278114467
:1008A00081607047180000200B4810B5016841F4C2
:1008B00000710160016841F480610160016841F4E8
:1008C00080710160032000F06FF8002000F006F84E
:1008D00000F024F8002010BD003C024070B50D4D22
:1008E00004464FF47A712878B1FBF0F00A490968A0
:1008F000B1FBF0F000F02AFB48B9102C07D200221F
:100900002146501E00F030F800206C6070BD0120C0
:1009100070BD000018000020240000200A4808B51F
:10092000016841F480410160006800F4804000905B
:100930000548001F016841F080510160006800F027
:100940008050009008BD000044380240002809DBB8
:1009500000F01F02012191404009800000F1E020D9
:10096000C0F8001170470000F0B40E4B1B680C4635
:10097000C3F30223C3F10705042D00D90425191D73
:10098000072901D2002300E0DB1E012606FA05F14B
:10099000491E214099409E40761E16403143F0BCCE
:1009A00000F02DBE0CED00E0064900F007020868DB
:1009B0004FF6FF03184040EA0220034A1043086044
:1009C000704700000CED00E00000FA052DE9F84347
:1009D0001748016841F0805101600068154F00F030
:1009E0008050012600903E64FFF750FF05464FF40B
:1009F0007A78114C05E000BFFFF748FF401B4045E7
:100A00000DD86068C003F7D57E64FFF73FFF054649
:100A1000464607E0FFF73AFF401BB04202D90320E9
:100A2000BDE8F88360688003F4D50020F8E7000093
:100A30004038024000000E42007000402DE9F047AF
:100A40000E46050065D0DFF81481D8F80000F7B233
:100A500000F00F00B04207D288F80070D8F800000C
:100A600000F00F00B04254D128683D4C810712D5E8
:100A7000400703D5206840F4E05020602878000744
:100A800003D5206840F4604020602068A96820F009
:100A9000F000084320602878C0072DD030496868EE
:100AA0000839012812D0022813D0032811D0096870
:100AB000890700292DDA216821F003010143216013
:100AC000FFF7E4FE814641F2883A0EE009688903A7
:100AD000EFE709688901ECE7FFF7D8FEA0EB090111
:100AE000514502D90320BDE8F0872068696800F00D
:100AF0000C00B0EB810FEFD1D8F80010404601F0A8
:100B00000F01B14207D90770006800F00F00B04232
:100B100001D00120E7E72878400705D52068E9687B
:100B200020F4E050084320602878000706D52068AC
:100B3000296920F4604040EAC100206000F018F804
:100B40002168084AC1F30311515CC8400649086096
:100B500006480068FFF7C2FE0020C4E7003C0240E0
:100B6000083802403C1A0008240000201C00002025
:100B7000224810B5006810F00C02214815D0214918
:100B8000042A11D01D4C241F082A0FD00C2A0CD186
:100B90002268236802F03F025B0221D52068C0F37F
:100BA0008810A0FB010120E0084610BD22682368E0
:100BB00002F03F025B0205D52068C0F38810A0FB5D
:100BC000010104E02168C1F38811A1FB00010023A9
:100BD000FFF714FB2168C1F30141491C49000AE0F9
:100BE0002168C1F38811A1FB00010023FFF706FB78
:100BF0002168C1F30271B0FBF1F010BD083802406A
:100C00000024F40040787D012DE9F84F0546DFF817
:100C100028B30078ABF10407C007A7F1040451D052
:100C2000DBF800105846C1F3810101290FD001689B
:100C3000C1F38101022902D13968490207D4006851
:100C4000C0F38100032809D13868400206D5206826
:100C5000800337D56868002872D033E06868B0F543
:100C6000803F10D0B0F5A02F206810D020F4803045
:100C70002060206820F4802020606868A8B1FFF719
:100C800005FE06460DE0206840F48030F4E740F4AD
:100C900080202060F7E700BFFFF7F8FD801B642885
:100CA00078D820688003F7D50CE0FFF7EFFD064603
:100CB00005E000BFFFF7EAFD801B6428F0D820683C
:100CC0008003F7D42878DFF8749280074FF0000A89
:100CD00046D5DBF80010584611F00C0F0FD0016814
:100CE000C1F38101022902D13968490207D50068A0
:100CF000C0F38100032809D13868400206D4206877
:100D0000800715D5E86801281AD111E0E868C0B15C
:100D10000120C9F80000FFF7B9FD064605E000BF55
:100D2000FFF7B4FD801B0228BAD820688007F7D5EA
:100D30002068296920F0F80040EAC10020600FE037
:100D4000F7E0C9F800A0FFF7A1FD064605E000BFE7
:100D5000FFF79CFD801B02281CD820688007F7D471
:100D60002878000727D5DFF8D0817548696908F130
:100D70006C0881B101210160FFF788FD064604E09F
:100D8000FFF784FD801B022804D8D8F800008007F4
:100D9000F6D510E089E0C0F800A0FFF777FD064621
:100DA00005E000BFFFF772FD801B02287DD8D8F850
:100DB00000008007F6D42878400769D55E484FF0D8
:100DC000000838300068C0000BD45B483830016838
:100DD00041F08051016000684FF0010800F0805040
:100DE0000090584E3068C00511D4306840F48070CF
:100DF0003060FFF74BFD009006E000BFFFF746FDB7
:100E00000099401A022850D83068C005F6D54A4EDD
:100E1000A868683601280FD00528306810D020F067
:100E200001003060306820F004003060A868B8B17C
:100E3000FFF72CFD00900FE0306840F00100F4E770
:100E400040F004003060F7E7FFF720FD0099411AF9
:100E500041F28830814264D830688007F4D50EE0D2
:100E6000FFF714FD009007E0FFF710FD0099411A0D
:100E700041F28830814254D830688007F4D4B8F108
:100E8000000F05D02C483830016821F080510160F6
:100E9000A869A8B3DBF80010C1F38101022948D08A
:100EA0000228C9F860A005D000E03AE0FFF7EEFCA8
:100EB000054639E0FFF7EAFC064604E0FFF7E6FCEA
:100EC000801B02282DD820688001F7D4F5E907019E
:100ED0000843E9681C4A490802EB0141AA6841EA53
:100EE00082110843297C40EA0160297D40EA0170B3
:100EF00038600120C9F86000FFF7C8FC054606E02D
:100F000015E000BFFFF7C2FC401B022809D820688B
:100F10008001F7D50BE000BFFFF7B8FC401B0228AB
:100F200002D90320BDE8F88F20688001F4D40020A6
:100F3000F8E70120F6E700000838024000004742C9
:100F4000800E4742007000400000FFFF10B5401EB9
:100F5000B0F1807F01D3012010BD4FF0E02460612B
:100F60000F21601700F04BFB0020A06107202061DB
:100F7000002010BD7047704770B590F83C20012AE2
:100F800032D0012480F83C40022280F83D200368E2
:100F90005A689D6822F070060A6832435A60134B03
:100FA00002689A4214D0B2F1804F11D0104B9A428D
:100FB0000ED0104B9A420BD00F4B9A4208D00F4BD9
:100FC0009A4205D00E4B9A4202D00E4B9A4204D15F
:100FD000496825F080031943916080F83D40002165
:100FE00080F83C10084670BD022070BD0000014032
:100FF0000004004000080040000C004000040140D4
:10100000004001400018004010B5040003D094F8DF
:101010003D0010B107E0012010BD002084F83C0025
:10102000204600F00DF8022084F83D00211D2068C4
:1010300000F038FA012084F83D00002010BD0000C7
:1010400008B50068B0F1804F12D10A48016841F03C
:10105000010101600068002200F0010000901146CB
:101060001C20FFF781FCBDE808401C20FFF76EBC88
:1010700008BD0000403802400168CA6842F0010221
:10108000CA600068816801F00701062903D0016881
:1010900041F0010101600020704770B5044690F8EE
:1010A0003C00012817D0012584F83C50022084F828
:1010B0003D002068826822F0770222F47F4282603D
:1010C0000868502830D00DDC20284DD005DC98B3BE
:1010D00010283BD148E0022070BD302844D0402881
:1010E00034D139E0602828D0702806D0B0F5805F70
:1010F0002CD0B0F5005F29D10AE0CB68D1E90121FD
:10110000206800F033FA2068816841F0770109E037
:10111000CB68D1E90121206800F028FA20688168B5
:1011200041F48041816011E0CA684968206800F09C
:101130002FFA5021206807E016E0CA684968206845
:1011400000F037FA6021206800F01AFA84F83D5068
:10115000002084F83C0070BDCA684968206800F02F
:1011600017FA40212068EFE7226801461046EBE7B6
:10117000704770B50446006801694FF00005C94327
:10118000890715D4C168C943890711D4E91E0161D3
:1011900001202077206880698007204602D0FFF771
:1011A000E7FF04E000F098F8204600F096F8257775
:1011B00020680169C943490717D4C168C943490771
:1011C00013D46FF004010161022020772068806948
:1011D00010F4407F204602D0FFF7CAFF04E000F081
:1011E0007BF8204600F079F8257720680169C9432B
:1011F000090716D4C168C943090712D46FF0080162
:101200000161042020772068C0698007204602D051
:10121000FFF7AEFF04E000F05FF8204600F05DF855
:10122000257720680169C943C90617D4C168C94335
:10123000C90613D46FF010010161082020772068DF
:10124000C06910F4407F204602D0FFF791FF04E010
:1012500000F042F8204600F040F825772068016948
:10126000C943C90708D1C168C943C90704D1891E48
:101270000161204600F032F820680169C94309067F
:1012800009D4C168C943090605D46FF08001016122
:101290002046FFF76FFE20680169C943490609D45B
:1012A000C168C943490605D46FF040010161204679
:1012B00000F070F820680169C94389060BD4C16841
:1012C000C943890607D46FF0200101612046BDE8BB
:1012D0007040FFF750BE70BD7047704710B52DEDE0
:1012E000028B0068B0F1804F46D1254C94ED021A74
:1012F000D4ED010AC0EE811A81EE200AFCEEE10A6B
:1013000010EE900A84ED040A208010EE100AFFF718
:1013100037F841EC180B60884000FFF724F89FED88
:10132000191B53EC112BFEF7ACFF53EC182BFEF7F7
:10133000A8FFFFF738F800EE100A00F071F9F7EE99
:10134000000A84ED030A30EE200ADFED100A0822BD
:10135000002120EE200A0E48BCEEC00A10EE103A22
:101360006361FFF769F96088401C80B26080218862
:10137000884201D300206080BDEC028B10BD0000CC
:10138000000000207A008BFCFA2109400000FE4298
:101390002C0000207047FEE710B586B000241148ED
:1013A000009401940294039404944FF080410594B6
:1013B00001605321C0E901141321C0E903148461C1
:1013C000FFF722FE4FF48050009069460548FFF772
:1013D00064FE2020CDE9040404A90248FFF7CCFDF7
:1013E00006B010BD40000020FEE770477047704710
:1013F000FFF752BA30B593B034216846FEF736FF96
:1014000014210DA8FEF732FF1A480025016841F0AB
:1014100080510160006800F0805012901648016809
:1014200041F4404101600068022400F44040129001
:101430000120039010200490009406940820CDE928
:101440000750B420CDE909040B9468460C94FFF7CB
:10145000DBFBFFF7BBFA0DA90F2081E831004FF449
:10146000A0501090E002119005210DA8FFF7E6FAB8
:1014700013B030BD4038024000700040054801689C
:1014800041F47001016003494FF000608039086049
:101490007047000088ED00E00148FFF76ABE0000D9
:1014A00040000020F0B50268254C264D264E274FFF
:1014B000274B4FF0804CA04209D0604507D0A8428E
:1014C00005D0B04203D0B84201D0984204D122F0F6
:1014D000700E4A6842EA0E02A0421BD0604519D045
:1014E000A84217D0B04215D0B84213D0984211D0BC
:1014F000184DA8420ED0184DA8420BD0174DA84247
:1015000008D0174DA84205D0164DA84202D0164D5E
:10151000A84203D122F44075CA682A434D6922F0DB
:1015200080022A4302608A68C2620A688262A0421C
:1015300001D0984201D10969016301214161F0BDE7
:10154000000001400004004000080040000C004082
:1015500000040140004001400044014000480140B7
:1015600000180040001C00400020004010B58468B6
:1015700042EA032224F47F440A432243826010BDDE
:10158000826822F070020A4342F0070181607047CE
:1015900010B5036A046A24F001040462846924F02B
:1015A000F00444EA021423F00A020A43846102624E
:1015B00010BD10B5036A23F0100303628369046A47
:1015C00023F4704343EA023224F0A00343EA0111FA
:1015D0008261016210BDFEE74100080218BF0420CD
:1015E0000A0E18BF40F001004FF07F4232EA0101BD
:1015F00008BF40F00200012808BF05207047090716
:10160000090E002804DB00F1E02080F80014704788
:1016100000F00F0000F1E02080F8141D704700007A
:1016200000B510EE101A2DED028B81B0524A6846BB
:10163000B2EB410F2ED94FF0E640B0EB410F94BF13
:1016400000204FF0FF3000900098B0EE408A002854
:101650006ADB10F0010F4BD068EE080A9FED471AC5
:101660009FED470A00EE810A9FED461A10F0020F27
:1016700000EE801AB7EE000A00EE810A02BF01B048
:10168000BDEC028B00BD00BF01B0B1EE400ABDEC65
:10169000028B00BD3C4B21F00042934241D911F036
:1016A000004FDFED3A0A20EE201ADFED390A19BFAC
:1016B00031EE601A71EE200A31EE201A71EE600AE6
:1016C000BDEEE01A11EE100A9FED321A00F0030091
:1016D00000EEC10A9FED301A009000EEC10A9FEDA6
:1016E0002F1A00EEC10A9FED2E1A00EEC10AABE7D9
:1016F00028EE080A9FED2B1ADFED2B0A10F0020FDF
:1017000040EE410A9FED291A00EE201A61EE000A10
:10171000B0EE480A08EE200AB6D101B0BDEC028B4B
:1017200000BD00F059F88FE718EE100A4000B0F144
:101730007F4F0DD218EE100AFFF74EFF042808BFA6
:1017400000F042F8B0EE480A01B0BDEC028B00BDDB
:1017500009D1012000F0FAF801B0BDEC028B5DF870
:1017600004EB00F029B801B0B0EE480ABDEC028BE2
:101770005DF804EB00F01CB8B61F927EB93AB2BA1D
:10178000CA9F2A3DDDFFFFBE490E494683F9223F2D
:101790000000004B0000C93F00A0FD390020A2332B
:1017A0001A61342C336D4C39DA82083CA0AA2ABE67
:1017B00030EE000A70470000DFED020A80EEA00A5A
:1017C00070470000000000009FED020A20EE000AB2
:1017D00070470000000000102DE9F0014FF07F423B
:1017E000B2EB410F9FBF4FF0FF310160BDE8F00148
:1017F00070474FF0004242EA0123C1F3C752783AE2
:10180000551112F01F0C434CCCF120067C44C1F35F
:10181000C752A2F178024FEA621204EB820254F836
:10182000254008BFD2E9015612D0556804FA0CF4DD
:1018300025FA06F73C43976805FA0CF527FA06F8EF
:10184000D26807FA0CFCF24045EA08054CEA0206A9
:10185000A4FB034CA5FB0352A6FB03631D449D425E
:1018600034BF012600261319334416B1934202D91E
:1018700003E0934201D2012200E00022624402F11F
:10188000200C9206DC0C42EA443200EE102A5B0384
:10189000DFED210AF8EEC01A00EE103A4FEA9C1C68
:1018A00011F0004FB8EE400AC0F800C020EE201A38
:1018B00000EE105ADFED190AB8EE400A20EE200AB9
:1018C00071EE810A70EE800A10EE902A02F5006235
:1018D0006FF30B0200EE902A70EEE11A31EEC11A9E
:1018E000DFED101A30EE411A9FED0D0A20EE800A4E
:1018F00001EE210A9FED0C1A00EE810A04BFBDE83B
:10190000F0017047CCF180510160BDE8F001B1EE0B
:10191000400A70473C020000000000360000802CA6
:1019200022AAFD29DB0FC92F0000C92F02E008C839
:10193000121F08C1002AFAD170477047002001E049
:1019400001C1121F002AFBD1704700000149086045
:101950007047000028000020304C2DED048B82B031
:1019600094ED020AD4ED010A80EE201A84ED041AE7
:1019700080EE801ABCEEC10A10EE100A2080FEF73D
:1019800093FFFFF737FD26480025016841F001016C
:1019900001600068244900F001000095214801958C
:1019A00008600846FEF703FE0095002269461E48BF
:1019B0000195FEF7DBFDFFF7EFFC00211A48FEF76B
:1019C00048FE19481430FFF757FBDFED188A184E10
:1019D0009FED189A184DB1EE048A00BFC4ED028A3B
:1019E00008E00A20FEF76CFE94ED020A30EE480A89
:1019F00084ED020AA068B042F3DC84ED029A08E0AC
:101A00000A20FEF75DFE94ED020A30EE080A84ED2E
:101A1000020AA068A842E1DAF2E700000000002014
:101A200030380240007400402C00002000007A444E
:101A3000000048420000484200007A4400000000D4
:101A4000000000000102030406070809000000006E
:101A50006E83F9A22915444ED15727FCC0DD34F519
:101A6000999562DB4190433CAB6351FE8C1A0008B0
:101A7000000000202C0000002C190008B81A0008F3
:101A80002C000020540400003C1900080000000055
:101A90000050434700007A440000000000000000AE
:101AA0000000000001000000100000000000000025
:081AB0000024F4000000000016
:04000005080001C529
:00000001FF
