:020000040800F2
:10000000E0050020AD010008B31F000865190008D5
:10001000B11F0008DD020008712000080000000088
:10002000000000000000000000000000B71F0008F2
:100030005905000800000000B51F0008B91F00089E
:10004000C7010008C7010008C7010008C701000870
:10005000C7010008C7010008C7010008C701000860
:10006000C7010008C7010008C7010008C701000850
:10007000C7010008C7010008C7010008C701000840
:10008000C7010008C7010008C70100080000000000
:10009000000000000000000000000000C701000890
:1000A000C7010008C7010008C7010008C701000810
:1000B000C7010008C7010008C7010008C701000800
:1000C000C7010008C7010008C7010008C7010008F0
:1000D000C7010008C7010008C701000800000000B0
:1000E000C7010008C7010008C701000800000000A0
:1000F000000000000000000000000000C701000830
:1001000000000000C7010008C7010008C70100087F
:1001100000000000000000000000000000000000DF
:10012000C7010008C7010008C7010008C70100088F
:10013000C7010008000000000000000000000000EF
:10014000000000000000000000000000C7010008DF
:10015000C7010008C7010008C7010008C70100085F
:10016000C7010008C70100080000000000000000EF
:10017000000000000000000000000000000000007F
:1001800000000000C701000800000000000000009F
:10019000C7010008C7010008DFF80CD000F08CF898
:1001A00000480047F1230008E0050020064880478A
:1001B00006480047FEE7FEE7FEE7FEE7FEE7FEE74C
:1001C000FEE7FEE7FEE7FEE755200008990100087C
:1001D0002DE9F05F0546002092469B46884606467C
:1001E000814640241BE0284641464746224600F00F
:1001F00053F853465A46C01A914110D31146184637
:10020000224600F03AF82D1A67EB01084F462246C5
:100210000120002100F031F817EB00094E41201EAB
:10022000A4F10104DFDC484631462A464346BDE8D6
:10023000F09F40EA01039B0703D009E008C9121FA1
:1002400008C0042AFAD203E011F8013B00F8013B90
:10025000521EF9D27047D2B201E000F8012B491EBC
:10026000FBD270470022F6E710B513460A46044653
:100270001946FFF7F0FF204610BD202A04DB203A84
:1002800000FA02F1002070479140C2F1200320FAE9
:1002900003F3194390407047202A04DB203A21FAE7
:1002A00002F00021704721FA02F3D040C2F120028F
:1002B0009140084319467047064C074D06E0E06838
:1002C00040F0010394E8070098471034AC42F6D39D
:1002D000FFF766FF0826000828260008FEE7000052
:1002E0000C4930B1012806D002280ED0032804D1D1
:1002F0000DE0F02000E0B020487011F8010F40F050
:100300000F000870042002F051B9E020F4E7A020AB
:10031000F2E70000100000200FB452482DE9F04130
:1003200000251B9E80F840500068C16941F480613F
:10033000C161012210214C4800F022FA2A2206A9AC
:100340004A48FFF776FFBDF84200484C6085119897
:10035000E06212982063092213A904F13400FFF728
:1003600068FF9DF8550084F83D009DF8560084F81C
:100370003E0016982064179860641898A064199835
:10038000E0641A9820653A4C0120214660700220F2
:1003900002F00CF9AF2060708027611C042002F08D
:1003A00005F96770611C052002F000F9214606205E
:1003B00002F0E4F86078611C00F0200040F00700D3
:1003C0006070062002F0F2F8611C082002F0D6F8F6
:1003D0006078611C00F0F00040F0010060700820BF
:1003E00002F0E4F8611C092002F0C8F86078611C92
:1003F00000F0F00040F001006070092002F0D6F833
:10040000611C0E2002F0BAF8012E01D036B107E0CF
:10041000607820F0380040F0C00000E002206070FA
:10042000611C0E2002F0C2F8611C0F2002F0A6F839
:100430006570611C0F2002F0B9F86570611C142012
:1004400002F0B4F8611C152002F0B0F8611C1A200B
:1004500002F0ACF8611CBDE8F0011B205DF814EB64
:1004600002F0A4B87C000020000C02408C010020A7
:100470001000002070B50446114D323840006870FD
:10048000691C142002F092F8691C152002F08EF805
:10049000642C01D9182007E004EB4400000164211A
:1004A000B0FBF1F01838C0B26870691C202002F06F
:1004B0007DF8691CBDE87040212002F077B800008B
:1004C0001000002010B5194C9920611C60700020AC
:1004D00002F06CF880206070611C472002F066F822
:1004E000611C322002F04AF86078611C40F0800004
:1004F0006070322002F05AF8611C322002F03EF89F
:100500006078611C20F080006070322002F04EF8AC
:1005100000206070611C02F049F89E206070611C30
:10052000BDE81040022002F041B800001000002099
:1005300030B50468256825F480252560046863606B
:100540008368402B036803D099600068C26030BDA7
:100550009A600068C16030BD70472DE9F0410446E3
:10056000866D90F83400002501280DD0012084F814
:10057000340094F835700020012F07D084F834003F
:1005800002252846BDE8F0810220FBE7022784F817
:10059000357060652046FFF7CBFF94F85C103F2074
:1005A0008840B0602068016841F016010160206C4D
:1005B00020B12068016841F00801016020680168ED
:1005C00041F001010160DCE770B5044600F0DEF89F
:1005D0000546601C02D004480078044400F0D6F8B8
:1005E000401BA042FAD370BD140000202DE9F84F43
:1005F00000224FF0010803254FF00F0E0B6808FA98
:1006000002F42340A34271D14E68012E05D0022E80
:1006100003D0112E01D0122E15D18668570005FA8D
:1006200007FC26EA0C06D1F80CC00CFA07FC4CEAD1
:10063000060CC0F808C04668A6430C79C4F3001441
:10064000944034434460C668570005FA07FC8C6840
:1006500026EA0C06BC403443C4604C68022C01D02E
:10066000122C13D1D40800EB8404A346D4F82090B4
:1006700054074FEAD46A0EFA0AF629EA06090E6907
:1006800006FA0AF646EA0906CBF8206004680E79F5
:1006900024EA0C0406F00306BE40264306604C68BC
:1006A000E40056D52E4C266846F480462660246821
:1006B00022F0030604F4804400942A4C3444A446F7
:1006C000D4F808489607370F0EFA07F6B443264EBB
:1006D000B04201D1002615E0244EB04201D10126DE
:1006E00010E0234EB04202D102260BE031E0214E51
:1006F000B04201D1032605E01F4EB04201D10426CD
:1007000000E00726BE402643CCF808681B4E34683C
:100710004F689C43FF0300D51C433460174E361DC1
:1007200034684F689C43BF0300D51C433460134EAC
:10073000083634684F689C43FF0200D51C43346080
:100740000E4E0C3634684F689C43BF0200D51C43E4
:100750003460521C102AFFF451AFBDE8F88F00003E
:1007600044380240003001400000024000040240D2
:1007700000080240000C024000100240003C014012
:100780000AB1816170470904FBE7000001488068F5
:10079000704700001400002070B5040025D094F8C4
:1007A0003D00002520B984F83C50204600F03EFA78
:1007B000242084F83D002068016821F001010160D7
:1007C0002068016841F4004101602068016821F45B
:1007D0000041016000F0C2FE4D4A6168914201D8BB
:1007E0004C4900E04C49884201D2012070BD4B4980
:1007F0002368B0FBF1F15E6826F03F060E435E60B1
:100800006368934206D94FF4967359434FF47A7351
:10081000B1FBF3F12368491C1E6A26F03F06314301
:1008200019626168914210D84900401EB0FBF1F294
:10083000521CC2F30B02042A01D2042022E0B0FBB6
:10084000F1F0401CC0F30B001CE0A268F2B301EB16
:10085000C10303EB0116431EB3FBF6F35B1C43F429
:1008600080431B0549D092B301EBC10202EB011199
:10087000401EB0FBF1F0401CC0F30B0040F4804080
:1008800040F400402168CA694CF6FF739A43104354
:10089000C861D4E9071001432068026822F0C00251
:1008A00011430160D4E9030101432068826848F2E2
:1008B000FF339A4311438160D4E90501084321685D
:1008C000CA6822F0FF021043C86001E00EE016E0A3
:1008D0002068016841F0010101602564202084F84E
:1008E0003D00256384F83E50002070BD01EB4106B9
:1008F000431EB3FBF6F35B1CB3E70120C2E701EB39
:100900004101401EB0FBF1F0401CC0F30B00B7E703
:10091000A086010080841E0000093D0040420F00B7
:100920002DE9F84F1F4690468A460446DDF8289088
:10093000FFF72CFF054694F83D00202875D11923B8
:1009400001226C492046009501F00EF90028F5D1EE
:1009500094F83C00012868D0012084F83C0020680D
:100960000168C90703D1016841F0010101602068F5
:10097000016821F400610160222084F83D0010200C
:1009800084F83E0000262664C4F824806785608DC4
:1009900020855948E0622B464A465146204600F0E1
:1009A000F9FF002878D1208D544F68B1012814D068
:1009B00002282068016816D041F480610160206837
:1009C00041698069009087E02068416981690091F0
:1009D000016841F4007101607EE02068016821F443
:1009E00080610160F0E721F48061016020680168A6
:1009F00041F40061E2E7032848D801280AD0022820
:100A000014D04B46002239462046009501F0ACF840
:100A1000D8BB27E02A464946204601F024F9A0BB6E
:100A200020680069616A08704DE061E04B46002271
:100A300039462046009501F097F830BB20680168E0
:100A400041F40071016020680069616A0870606AA1
:100A5000401C6062218D491E2185618D491E618582
:100A600021682EE02068016821F48061016020681F
:100A70000069616A0870606A401C6062208D401ED7
:100A80002085608D401E6085D0E705E02A464946F6
:100A9000204601F0E8F810B10120BDE8F88F206889
:100AA0000069616A0870606A401C6062218D491E9D
:100AB0002185618D491E618521684A69D2435207AB
:100AC0000AD409690170606A401C6062208D401E72
:100AD0002085608D401E6085208D00288BD12020D0
:100AE00084F83D0084F83E6084F83C600020D4E740
:100AF0000220D2E7020010000000FFFF0400010006
:100B00002DE9F84F1F4690468A460446DDF82890A6
:100B1000FFF73CFE054694F83D0020287FD11923BD
:100B2000012240492046009501F01EF8002876D1A8
:100B300094F83C00012872D0012084F83C00206821
:100B40000168C90703D1016841F001010160206813
:100B5000016821F400610160212084F83D0010202B
:100B600084F83E0000262664C4F824806785608DE2
:100B700020852D48E0622B464A465146204600F02B
:100B80007FFF90B9206841698069009036E02A466D
:100B90004946204601F09AF850B1206C042804D14F
:100BA0002068016841F4007101600120BDE8F88F00
:100BB000606A216800780861606A401C6062618D2B
:100BC000491E6185218D491E89B22185226853699C
:100BD000DB435B070BD451B100781061606A401CA5
:100BE0006062608D401E6085208D401E20852A46F3
:100BF0004946204600F092FF0028CED1208D0028E3
:100C0000C5D154F83D0B016841F40071016020200A
:100C100004F81E09E67766770020C7E7FFE70220A1
:100C2000C4E70000020010000000FFFF10B586B00E
:100C3000044614216846FFF715FB144920688842D2
:100C400021D11348016841F0020101600068694642
:100C500000F0020005904FF41070009012200190F7
:100C60000120029003200390042004900948FFF71C
:100C7000BDFC07481030016841F4001101600068B4
:100C800000F40010059006B010BD000000540040B4
:100C900030380240000402402DE9FF41044600685C
:100CA000816800917749784E4FF04027884201D102
:100CB000324600E03A4692680192406888460290C7
:100CC00001D1304600E038464068039060684FF03C
:100CD0000105B0F5007F1CD0D8B1900705D5039869
:100CE000000602D5204601F047F80098C0070FD053
:100CF000029840067FD521682046CA68E16A8B1CAD
:100D0000E3620A80618E491E6186618E002967D088
:100D100071E00098800719D50298000616D5616A1F
:100D200020468A1C626222680988D160618D491E52
:100D30006185618D51B901684A6822F0A0024A605C
:100D4000418E19B980F8415000F0A0F80198C00711
:100D500005D00398400602D5204600F0DDFF01983B
:100D6000400622D5039880061FD52168414501D150
:100D7000304600E03846406820F0600101D130463E
:100D800000E0384641602068416821F0A0014160E0
:100D90002068C1688068019084F84150606C40F020
:100DA00002006064204600F072F80098000767D5E2
:100DB0000298800664D52068416821F0A001416056
:100DC0002168414501D1304600E03846406820F0B6
:100DD000600000D03E46706020688068009043E06C
:100DE00001684A6822F060024A60418D19B980F8B2
:100DF000415000F04BF8009840061ED5029880063E
:100E00001BD52068416821F060014160216841459F
:100E100001D1304600E03846406820F0A00101D101
:100E2000304600E03846416084F84150606C40F044
:100E300002006064204600F02AF8019800071FD5E0
:100E4000039880061CD52168414501D1304600E059
:100E50003846406820F0A00000D03E467060206810
:100E6000416821F06001416084F84150606C40F0BD
:100E70000400606404B02046BDE8F04100F007B80B
:100E8000BDE8FF81003800400034004070477047E3
:100E90002DE9F047040005D094F841004FF0000818
:100EA00018B109E00120BDE8F08784F8408051487E
:100EB0006063204600F0A6F8022684F841602068AE
:100EC000C16940F6BF77B943C161206806626069B5
:100ED0004FF4007902282FD0E06870B12025A06877
:100EE000202800D86D00012000F0C4F9216949458F
:100EF0001FD1E16819B1A90002E01025EFE7E90070
:100F0000B0FBF1F000EB800061694000B0FBF1F054
:100F1000401D0A21B0FBF1F000F00101401A400829
:100F20000902821EFE2A09D3606C40F01000606442
:100F3000B8E7B0FBF5F0E5E702200021226908439D
:100F4000024320680262D4E901010843A269E16812
:100F5000114308432168CA69BA43104340F4006052
:100F6000C861206A01283AD1234860632348216878
:100F7000234A4FF04023814201D1114600E0194637
:100F8000C96921EA070101D1154600E01D46E96162
:100F90002168814201D1114600E019460E622568A0
:100FA000854201D1114600E01946C9698EB26168D7
:100FB00049451BD0D1B100212789B4F80CC047EABC
:100FC0000C07B4F818C04CEA010C47EA0C07B9B298
:100FD000314341F40061854200D01A46D161C4F822
:100FE0004480012084F8410000205CE74FF48071C8
:100FF000E2E700002F1E0008990C000800380040AE
:101000000034004070B586B0044614216846FFF7EE
:1010100029F91C492068884232D11B480024016804
:1010200041F400410160006800F40040059016485A
:101030001038016841F001010160016801F001010F
:101040000591016841F0040101600068022500F08B
:101050000400059010200090CDE901540626CDE94A
:10106000034669460948FFF7C1FA4FF4A4500090BF
:10107000CDE90154CDE9034669460548FFF7B6FAC4
:1010800006B070BD003C0040403802400000024005
:10109000000802407047000070B5044681B17AB183
:1010A00094F84000012809D0012684F8406094F8A3
:1010B00041000025012805D084F84050022070BD71
:1010C000012070BD032084F84100656461622068DE
:1010D000C06900F0070003281DD005281BD0228519
:1010E0006285A16B19480864A16B1948C863A16B9C
:1010F0001848C864238D2268616A0C32A06BFFF720
:101100002CFA78B154F8440F40F0080044F8040970
:1011100066702570D4E74FF6FF7000EA4200208524
:101120006085DEE72068C169490503D4C16941F4DF
:101130008061C16120684168890703D4416841F03A
:101140000201416084F84050002070BD251E000857
:10115000011E0008D91D00087047704702488168C9
:101160000278114481607047140000200B4810B5CC
:10117000016841F400710160016841F4806101601F
:10118000016841F480710160032000F061F80020E3
:1011900000F006F800F024F8002010BD003C0240EA
:1011A00070B50D4D04464FF47A712878B1FBF0F01C
:1011B0000A490968B1FBF0F000F0C0FB48B9102CF7
:1011C00007D200222146501E00F022F800206C6059
:1011D00070BD012070BD0000140000202000002020
:1011E0000A4808B5016841F480410160006800F4D4
:1011F000804000900548001F016841F08051016067
:10120000006800F08050009008BD000044380240A3
:10121000F0B40E4B1B680C46C3F30223C3F1070561
:10122000042D00D90425191D072901D2002300E04F
:10123000DB1E012606FA05F1491E214099409E4019
:10124000761E16403143F0BC00F026BF0CED00E0E6
:10125000064900F0070208684FF6FF03184040EA0D
:101260000220034A10430860704700000CED00E0C4
:101270000000FA0501460020012907D1104909683C
:1012800011F4000103D0012900D10E4870470C4829
:10129000001F006841020C48016801F03F0101D5C0
:1012A0000A4A00E00A4AB2FBF1F102680068C2F3A0
:1012B00088124A43C0F30270B2FBF0F0704700009E
:1012C000083802400080BB008438024040787D012D
:1012D0000024F4002DE9F843044600684FF00109AA
:1012E000C1074FF0000601D1400729D5DFF8208162
:1012F000C8F86860FFF74AFA0746464D05E000BFA8
:10130000FFF744FAC01B022859D828680001F7D417
:10131000A068217B800140EA0170616808433D4973
:1013200084310860C8F86890FFF730FA074604E097
:10133000FFF72CFAC01B022841D828680001F7D516
:101340002078800752D533484030016841F0805101
:1013500001600068304D00F080500090286840F433
:1013600080702860FFF712FA074604E0FFF70EFAD4
:10137000C01B022823D82868C005F7D5254D703535
:10138000286810F4407020D0218A01F44071814215
:101390001BD02868214920F44070C1F800900E60ED
:1013A00028602868C00710D0FFF7F0F9064641F220
:1013B000883707E0FFF7EAF9801BB84202D903201B
:1013C000BDE8F88328688007F4D521691148C1F386
:1013D00001220830032A12D0016821F4F8110160BB
:1013E0002868218AC1F30B01084328602078000790
:1013F00003D50B49207DC1F8E0010020E0E7026839
:10140000084B22F4F81219400A430260E8E7000092
:10141000000047420038024000700040400E474242
:1014200000104742FFFCFF0F2DE9F0470E46050074
:1014300065D0DFF81481D8F80000F7B200F00F0093
:10144000B04207D288F80070D8F8000000F00F0012
:10145000B04254D128683D4C810712D5400703D5CE
:10146000206840F4E05020602878000703D5206809
:1014700040F4604020602068A96820F0F000084334
:1014800020602878C0072DD03049686808390128C5
:1014900012D0022813D0032811D009688907002927
:1014A0002DDA216821F0030101432160FFF76EF975
:1014B000814641F2883A0EE009688903EFE709683E
:1014C0008901ECE7FFF762F9A0EB0901514502D968
:1014D0000320BDE8F0872068696800F00C00B0EBDD
:1014E000810FEFD1D8F80010404601F00F01B14252
:1014F00007D90770006800F00F00B04201D001204A
:10150000E7E72878400705D52068E96820F4E0502F
:10151000084320602878000706D52068296920F450
:10152000604040EAC100206000F028F82168084AC5
:10153000C1F30311515CC8400649086006480068C1
:10154000FFF72EFE0020C4E7003C024008380240AE
:10155000D02500082000002018000020044805497C
:1015600000680968044AC1F38221515CC840704791
:101570002000002008380240E0250008154810B57A
:10158000006810F00C02144813D01449042A0FD03C
:10159000082A0ED10F4C241F2268236802F03F0254
:1015A0005B0207D52068C0F38810A0FB010106E0AC
:1015B000084610BD2168C1F38811A1FB000100237A
:1015C000FEF706FE2168C1F30141491C4900B0FB4A
:1015D000F1F010BD083802400024F40040787D018D
:1015E0002DE9F84F040076D02078DFF838A3CE4DEF
:1015F000C00749D0DAF800105046C1F38101012933
:1016000008D00068C0F3810002280AD1281D0068B4
:10161000400206D52868800336D560680028E2D0ED
:1016200032E06068B0F5803F10D0B0F5A02F286898
:1016300010D020F480302860286820F480202860B2
:101640006068A0B1FFF7A2F806460CE0286840F4F5
:101650008030F4E740F480202860F7E7FFF796F841
:10166000801B642873D828688003F7D50CE0FFF747
:101670008DF8064605E000BFFFF788F8801B642858
:10168000F0D828688003F7D42078DFF8A08280079C
:101690004FF000093ED5DAF80010504611F00C0F5B
:1016A00009D00068C0F3810002280BD19D48001FBB
:1016B0000068400206D42868800715D5E068012834
:1016C00009D111E0E068B8B10120C8F80000FFF7C7
:1016D0005DF8064605E020E1FFF758F8801B022878
:1016E000C0D828688007F7D52868216920F0F8005D
:1016F00040EAC10028600DE0C8F80090FFF746F806
:10170000064604E0FFF742F8801B02281FD828682D
:101710008007F7D42078000722D5824E844861697B
:101720006C3671B101210160FFF730F8074604E023
:10173000FFF72CF8C01B022809D830688007F7D5BE
:101740000EE0C0F80090FFF721F8074605E082E0C0
:10175000FFF71CF8C01B02287DD830688007F7D43B
:101760002078400768D5DFF8BCB100270BF1380BB3
:10177000DBF80000C0000BD4DBF8001041F0805112
:10178000CBF80010DBF80000012700F0805000903B
:10179000684E3068C00510D4306840F48070306006
:1017A000FEF7F4FF009005E0FEF7F0FF0099401A05
:1017B000022850D83068C005F6D55A4EA068683661
:1017C00001280FD00528306810D020F001003060CB
:1017D000306820F004003060A068B8B1FEF7D6FF92
:1017E00000900FE0306840F00100F4E740F00400A2
:1017F0003060F7E7FEF7CAFF0099411A41F28830DE
:10180000814266D830688007F4D50EE0FEF7BEFF4F
:10181000009007E0FEF7BAFF0099411A41F28830C4
:10182000814256D830688007F4D42FB1DBF800101D
:1018300021F08051CBF80010A069D0B3DAF8002075
:101840005146C2F38102022A4AD00228484607D0F4
:10185000C8F8600000E03CE0FEF798FF04463BE07B
:101860004746C8F86000FEF791FF064605E000BF56
:10187000FEF78CFF801B02282BD828688001F7D444
:10188000D4E907010843A16A2B4A490802EB014148
:10189000626A41EA8211084394F82C1040EA01611F
:1018A0002048001F016001203866FEF76FFF0446E4
:1018B00005E034E0FEF76AFF001B022809D828681B
:1018C0008001F7D52BE000BFFEF760FF001B022868
:1018D00002D90320BDE8F88F28688001F4D41EE007
:1018E0000128F7D00868E26900F48001914214D120
:1018F000226A00F03F0191420FD147F6C071626A3F
:101900000140914209D1A26A00F44031914204D1D0
:10191000E16A00F07060884201D00120DAE700201F
:10192000D8E7000008380240003802400000474273
:10193000800E4742007000400000FFFF10B5401EBF
:10194000B0F1807F01D3012010BD4FF0E024606131
:101950000F21601700F0A0FB0020A061072020618C
:10196000002010BDFEE701684A69D24352050FD43A
:101970006FF480624A61002140F8301F20224273D8
:101980008173026942F00402026101730120704711
:10199000002070472DE9F84F0446C06A1E46934662
:1019A0000D4621680A6842F480620A60082807D060
:1019B000012805D010F5803F02D0206B112804D1FA
:1019C0002068016841F4807101604FF001195B46A5
:1019D000002249462046009600F0C6F84FF40078F1
:1019E00040B120680068C00501D5C4F840800320DC
:1019F000BDE8F88F2069DFF884A0B0F5804F0FD0E4
:101A00000620216800EAD51747F0F0000861334648
:101A10005A460AF10601204600F0DAF858BB03E006
:101A2000E8B240F001001CE02168E8B208613346EA
:101A30005A465146204600F0CBF8E0B9206841698B
:101A400081690091016841F4807101605B46002268
:101A500049462046009600F087F80028C1D147F09B
:101A6000F1002168086133465A465146204600F08D
:101A7000AFF80028BCD00120BAE700000200010046
:101A8000F8B50446C06A1E460D461746082807D01A
:101A9000012805D010F5803F02D0206B122804D118
:101AA0002068016841F480710160134600224FF004
:101AB00001112046009600F057F840B120680068F8
:101AC000C00502D54FF4007020640320F8BD2069E2
:101AD000B0F5804F0ED00620216800EAD51040F006
:101AE000F000086133463A460B49204600F070F892
:101AF00078B902E005F0FE0000E0E8B22168086174
:101B0000054933463A46891F204600F061F800280F
:101B1000DCD00120F8BD00000800010070B51646B9
:101B20000D4604460DE02046FFF71DFF08B10120D9
:101B300070BD681C05D0FEF729FE801BA84207D89F
:101B400035B120684069C0434007ECD4002070BD27
:101B5000002044F8300F20216173A073216941F007
:101B6000200121612073E2E72DE9F0471E469046EF
:101B70000D460446C1F30747DDF8209008E0701CCD
:101B800006D0FEF703FEA0EB0900B0420FD876B1F5
:101B90002068012F18D0806925EA00000004000C9D
:101BA00014D000214145EAD00020BDE8F087002094
:101BB00044F8300F20216173A073216941F02001A6
:101BC000216120730120F0E74069E5E70121E9E7A1
:101BD0002DE9F0479A4691460E46044600254FF0FF
:101BE0002008C1F3074725E020684069C04340054D
:101BF00014D42068016841F40071016021686FF419
:101C000080604861256384F83D8084F83E50206CF4
:101C100040F00400206484F83C501FE0B9F1FF3F1D
:101C200008D0FEF7B3FDA0EB0A0149450CD8B9F185
:101C3000000F09D02068012F13D0806926EA000028
:101C40000004000C0BD0CFE744F8305F84F80D801F
:101C5000A573206940F02000206125730120BDE8B4
:101C6000F0874069EAE72DE9F041002590460E46ED
:101C70000446202717E04069C043C0060CD454F83E
:101C8000301B6FF01000486144F810596777A57752
:101C9000206A2062257717E0FEF778FDA0EB0800A8
:101CA000B04208D83EB120684169C9434906E2D430
:101CB0000020BDE8F08144F8305F6773A5732069A8
:101CC00040F02000206125730120F2E770B5164630
:101CD0000D4604460DE02046FFF745FE08B1012001
:101CE00070BD681C05D0FEF751FD801BA84207D8C7
:101CF00035B120684069C0430006ECD4002070BDB7
:101D0000002044F8300F20216173A073216941F055
:101D1000200121612073E2E770B515490268154B77
:101D20004FF040248A4201D11A4600E02246D5688D
:101D3000C26A961CC6621580428E521E4286428E30
:101D4000002A14D102688A4201D1194600E02146D6
:101D5000496821F0600100D023465960418D002977
:101D600005D14FF0010180F84110FFF78FF870BDE9
:101D7000003800400034004070B5416A144B8A1CA2
:101D8000426205680988134A4FF040249D4201D100
:101D9000154600E02546E960418D491E4185418D8B
:101DA000002914D10168994201D1114600E0214671
:101DB000496821F0A00100D022465160418E0029DF
:101DC00005D14FF0010180F84110FFF75FF870BDB9
:101DD000003800400034004010B5806B01684A684C
:101DE00022F003024A60002141854186012180F8EA
:101DF0004110416C41F008014164FFF748F810BD03
:101E000010B50146806BC96949B901684A6822F07A
:101E100002024A6000214185012180F84110FFF74C
:101E20009BF910BD10B5806BFFF797F910BD7CB51D
:101E3000016804468868009094F841000125042850
:101E400034D10098C00718D04868C043400614D465
:101E5000C9682046E26A1180E16A891CE162618EEC
:101E6000491E6186618E41B901684A6822F06002AC
:101E70004A6080F84150FFF70DF90098400615D5EB
:101E800020684168C943890610D4416821F0600187
:101E900041602068C1688068019084F84150606C9E
:101EA00040F0020060642046FEF7F1FF94F8410024
:101EB000032834D10098800719D521684868C043A9
:101EC000000614D4626A20461288CA60616A891CBE
:101ED0006162618D491E6185618D41B901684A6801
:101EE00022F0A0024A6080F84150FFF735F90098CF
:101EF000000714D520684168C94389060FD441689A
:101F000021F0A001416020688068009084F8415071
:101F1000606C40F0040060642046FEF7B8FF7CBDB2
:101F200070B586B014216846FEF79CF91E4800245F
:101F3000016841F080010160016801F080010591B4
:101F4000016841F001010160016801F001010591A2
:101F5000016841F008010160016801F00801059184
:101F6000016841F004010160016801F0040105917C
:101F7000016841F00201016000680C4E00F00200AF
:101F80004FF210050590002229463046FEF7F8FB77
:101F900001200095CDE90104694630460394FEF71F
:101FA00025FB06B070BD000030380240000C024036
:101FB000FEE7704770477047FFF7D0B8F0B599B0AB
:101FC00030216846FEF74EF914210CA8FEF74AF9B5
:101FD000182111A8FEF746F91C480025016841F0B8
:101FE00080510160006800F0805017901848016827
:101FF00041F4404101600068022400F44040179021
:10200000009406940820CDE907506420CDE9090426
:1020100004200B90012610276846CDE90367FFF7DF
:10202000DFFA0CA90F2081E83100E002CDE90F05AD
:1020300003210CA8FFF7F8F9C020CDE9130411A87B
:10204000CDE91167FFF746F919B0F0BD40380240FD
:10205000007000400548016841F4700101600349C7
:102060004FF00060803908607047000088ED00E0A4
:10207000FEE74100080218BF04200A0E18BF40F016
:1020800001004FF07F4232EA010108BF40F0020038
:10209000012808BF052070470907090E002804DB46
:1020A00000F1E02080F80014704700F00F0000F10C
:1020B000E02080F8141D704700B510EE101A2DEDC9
:1020C000028B81B0524A6846B2EB410F2ED94FF0D5
:1020D000E640B0EB410F94BF00204FF0FF3000907E
:1020E0000098B0EE408A00286ADB10F0010F4BD058
:1020F00068EE080A9FED471A9FED470A00EE810A35
:102100009FED461A10F0020F00EE801AB7EE000A9B
:1021100000EE810A02BF01B0BDEC028B00BD00BF22
:1021200001B0B1EE400ABDEC028B00BD3C4B21F08A
:102130000042934241D911F0004FDFED3A0A20EE00
:10214000201ADFED390A19BF31EE601A71EE200A4C
:1021500031EE201A71EE600ABDEEE01A11EE100A9F
:102160009FED321A00F0030000EEC10A9FED301A15
:10217000009000EEC10A9FED2F1A00EEC10A9FEDFC
:102180002E1A00EEC10AABE728EE080A9FED2B1AC3
:10219000DFED2B0A10F0020F40EE410A9FED291AE5
:1021A00000EE201A61EE000AB0EE480A08EE200A9E
:1021B000B6D101B0BDEC028B00BD00F059F88FE73D
:1021C00018EE100A4000B0F17F4F0DD218EE100A41
:1021D000FFF74FFF042808BF00F042F8B0EE480AAE
:1021E00001B0BDEC028B00BD09D1012000F0FAF86E
:1021F00001B0BDEC028B5DF804EB00F029B801B032
:10220000B0EE480ABDEC028B5DF804EB00F01CB8A0
:10221000B61F927EB93AB2BACA9F2A3DDDFFFFBE11
:10222000490E494683F9223F0000004B0000C93F98
:1022300000A0FD390020A2331A61342C336D4C39D3
:10224000DA82083CA0AA2ABE30EE000A70470000DD
:10225000DFED020A80EEA00A7047000000000000D7
:102260009FED020A20EE000A7047000000000010F7
:102270002DE9F0014FF07F42B2EB410F9FBF4FF0CD
:10228000FF310160BDE8F00170474FF0004242EAC3
:102290000123C1F3C752783A551112F01F0C434C79
:1022A000CCF120067C44C1F3C752A2F178024FEA78
:1022B000621204EB820254F8254008BFD2E90156AD
:1022C00012D0556804FA0CF425FA06F73C439768D7
:1022D00005FA0CF527FA06F8D26807FA0CFCF2406A
:1022E00045EA08054CEA0206A4FB034CA5FB035291
:1022F000A6FB03631D449D4234BF0126002613192B
:10230000334416B1934202D903E0934201D2012231
:1023100000E00022624402F1200C9206DC0C42EA4A
:10232000443200EE102A5B03DFED210AF8EEC01AFA
:1023300000EE103A4FEA9C1C11F0004FB8EE400A34
:10234000C0F800C020EE201A00EE105ADFED190A86
:10235000B8EE400A20EE200A71EE810A70EE800A83
:1023600010EE902A02F500626FF30B0200EE902A45
:1023700070EEE11A31EEC11ADFED101A30EE411A9B
:102380009FED0D0A20EE800A01EE210A9FED0C1A46
:1023900000EE810A04BFBDE8F0017047CCF1805126
:1023A0000160BDE8F001B1EE400A70474003000053
:1023B000000000360000802C22AAFD29DB0FC92F67
:1023C0000000C92F02E008C8121F08C1002AFAD174
:1023D00070477047002001E001C1121F002AFBD1A5
:1023E0007047000001490860704700002400002089
:1023F000594D2DED028BA8B0D5ED010A9FED570A7E
:1024000080EE801A85ED031A80EE201ABCEEC10A18
:1024100010EE100A2880FEF7A9FEFFF7CFFDFFF7A8
:102420007FFD504C4E48002620604F48C4E901060D
:102430004FF48040C4E903606661A661E66120460E
:102440002662FEF7A9F904F15400484901604915D4
:10245000C0E90116C0E903614FF4FA51C0E905165D
:10246000C6610662FEF714FD2A22214612A8FDF776
:10247000E0FE608DADF87200E06A1D90206B1E904A
:10248000092204F134011FA8FDF7D3FE94F83D00A2
:102490008DF8850094F83E008DF88600206C22901F
:1024A000606C2390A06C2490E06C2590206D2690A9
:1024B000442216A968461196FDF7BBFE0DF1480CA3
:1024C0009CE80F00FDF728FF1E20FDF7D3FF032037
:1024D000FDF706FFFDF7F6FF224E0024DFED248A0C
:1024E0009FED248A9C361DE0600000EE100AD5EDB9
:1024F000030AB8EE400A20EE280A20EE200AFFF771
:10250000DBFD85ED020A20EE080A06EB8401BCEE35
:10251000C00A10EE100A26F8240010EE100A641CFF
:102520004880A4B228888442DED380B24FF6FF717F
:1025300001EA40020B499C31A1F14800FEF7ACFDD5
:102540009FED0D8A95ED010AFA2030EE080A85ED1F
:10255000010AFEF739F8F5E70000002000803B474C
:102560000054004028000020A0860100003C0040EC
:10257000D00F49400000FA4500007A4438B50C46B7
:10258000084964250A4608700123942106480095ED
:10259000FEF7B6FA01232246942103480095FEF780
:1025A000BFF938BD100000208C01002008B5064A94
:1025B0000223107008785070642000909421034822
:1025C000FEF79EFA08BD0000100000208C010020DC
:1025D00000000000000000000102030406070809D3
:1025E0000000000001020304000000006E83F9A255
:1025F0002915444ED15727FCC0DD34F5999562DB8F
:102600004190433CAB6351FE2826000800000020A7
:1026100028000000C42300085026000828000020DD
:10262000B8050000D4230008000000000080BB446F
:102630000000000000000000000000000100000099
:1026400010000000000000000024F4000000000062
:040000050800019955
:00000001FF
