:020000040800F2
:10000000C0040020AD010008CF1300085113000800
:10001000CD130008710400086514000800000000FA
:10002000000000000000000000000000D3130008E2
:100030002505000800000000D1130008D5130008B2
:10004000C7010008C7010008C7010008C701000870
:10005000C7010008C7010008C7010008C701000860
:10006000C7010008C7010008C7010008C701000850
:10007000C7010008C7010008C7010008C701000840
:10008000C7010008C7010008C70100080000000000
:10009000000000000000000000000000C701000890
:1000A000C7010008C7010008C7010008C701000810
:1000B000C7010008C7010008C7010008C701000800
:1000C000C7010008C7010008C7010008C7010008F0
:1000D000C7010008C7010008C701000800000000B0
:1000E000C7010008C7010008C701000800000000A0
:1000F000000000000000000000000000C701000830
:1001000000000000C7010008C7010008C70100087F
:1001100000000000000000000000000000000000DF
:1001200075040008C7010008C7010008C7010008DE
:10013000C7010008000000000000000000000000EF
:10014000000000000000000000000000C7010008DF
:10015000C7010008C7010008C7010008C70100085F
:10016000C7010008C70100080000000000000000EF
:10017000000000000000000000000000000000007F
:1001800000000000C701000800000000000000009F
:10019000C7010008C7010008DFF80CD000F07AF8AA
:1001A00000480047A5140008C00400200648804706
:1001B00006480047FEE7FEE7FEE7FEE7FEE7FEE74C
:1001C000FEE7FEE7FEE7FEE7491400089901000894
:1001D0002DE9F05F0546002092469B46884606467C
:1001E000814640241BE0284641464746224600F00F
:1001F00041F853465A46C01A914110D31146184649
:10020000224600F028F82D1A67EB01084F462246D7
:100210000120002100F01FF817EB00094E41201EBD
:10022000A4F10104DFDC484631462A464346BDE8D6
:10023000F09FD2B201E000F8012B491EFBD27047BB
:100240000022F6E710B513460A4604461946FFF7A2
:10025000F0FF204610BD202A04DB203A00FA02F10C
:10026000002070479140C2F1200320FA03F31943A4
:1002700090407047202A04DB203A21FA02F0002146
:10028000704721FA02F3D040C2F1200291400843A6
:1002900019467047064C074D06E0E06840F0010340
:1002A00094E8070098471034AC42F6D3FFF778FF84
:1002B000141500083415000810B50146806B026C57
:1002C00012F0500F05D0026CD20626D500F0E0F9EE
:1002D00010BD016C41F40071016401688A6812F07C
:1002E000405F17D1027EAAB9CA6A12F4700F02D019
:1002F0008A6852050ED44A6822F020024A60016CD6
:1003000021F480710164016CC90403D4016C41F0D3
:100310000101016400F0BAF910BD806BC26CBDE848
:1003200010400846104710B5806B40210164416CB5
:1003300041F00401416400F0ABF910BD10B5806BD1
:1003400000F0A5F910BD0000464910B54A6822F436
:1003500040324A604A6843681A434A6001684A6802
:1003600022F480724A6001684A68036942EA032203
:100370004A6001684A6822F040724A6001684A682F
:1003800083681A434A6001688A6822F400628A60BE
:1003900001688A68C3681A438A60816A6FF0706274
:1003A000D14201688A6822F070628A6001688A68B6
:1003B0000CD0836A1A438A6001688A6822F040522E
:1003C0008A6001688A68C36A1A4301E022F04052D9
:1003D0008A6001688A6822F002028A6001688A687D
:1003E000037E42EA43028A6090F8201000290168E7
:1003F0004A680FD042F400624A6001684A6822F4F9
:1004000060424A6001684A68174C436A04EB433310
:100410001A4301E022F400624A600168CA6A22F4C9
:100420007002CA620168CA6A838B104C04EB0353E2
:100430001A43CA6201688A6822F400728A600168FD
:100440008A6890F8303042EA43228A6001688A68FC
:1004500022F480628A6001688A68406942EA8020EA
:10046000886010BD0023014000E0FFFF0000F0FFA6
:10047000FEE70000014800F001BA00005C00002027
:1004800001681823CAB2103AB2FBF3F2054B6FF3BE
:100490000901032A9B5CC36500D9091D81650846D3
:1004A00070470000FC14000810B5014600208B695D
:1004B0008A6A4FF0C07453B1B3F5005F15D072B1C2
:1004C000012A0CD0022A0AD0032A09D104E01AB169
:1004D000012A06D0022A03D1C96AC90100D5012028
:1004E00010BDC96AA142FAD010BD002AF7D0012A76
:1004F000F2D0022AF3D0032AF3D010BD30B504683D
:10050000256825F480252560046863608368402B96
:10051000036803D099600068C26030BD9A600068CB
:10052000C16030BD7047704778B50024009490F8E2
:100530003C20012A19D0012280F83C200A680723B8
:100540000568092A13D9EE680A3A02EB4202934081
:100550009E43EE600B788A680A3B03EB43039A40A4
:100560000368DD682A43DA6010E0022078BD2E6956
:1005700002EB420293409E432E610B788A6803EBA4
:1005800043039A4003681D692A431A614A681F237E
:10059000072A13D205686E6B521E02EB820293404B
:1005A0009E436E630A8893B20A79521E02EB82025E
:1005B00093400268556B2B43536327E005680D2A6F
:1005C00012D22E6BD21F02EB820293409E432E6307
:1005D0000B790A88DB1F92B203EB83039A4003680E
:1005E0001D6B2A431A6311E0EE6A0D3A02EB820298
:1005F00093409E43EE620B790A880D3B92B203EB67
:1006000083039A400368DD6A2A43DA621B4B05685C
:10061000194A9D420AD10D68122D07D1556825F45B
:1006200000055560556845F48005556005689D4294
:100630001DD1134D0B68AB4201D0112B17D153685C
:1006400023F480035360536843F400035360096844
:10065000A9420CD10B490C4A0968B1FBF2F101EB3C
:100660008101490000E0491E00910029FBD180F87A
:100670003C40002078BD00000023014000200140E4
:10068000120000101000002040420F007047704719
:10069000704770B504004FF0000503D0206C0026B1
:1006A00010B107E0012070BD204600F01DF866641F
:1006B00084F83C60206CC00610D4206C20F4885074
:1006C00040F0020020642046FFF73EFE6664206C86
:1006D00020F0020040F00100206400E0012584F8D1
:1006E0003C60284670BD000070B586B006461421F7
:1006F0006846FFF7A5FD1C493068884232D11B4887
:100700000025016841F480710160006800F4807088
:10071000059016481438016841F001010160006835
:10072000694600F001000590072000900320CDE904
:1007300001050F4800F014FA0F4C0E48C4E90005FB
:100740000015A560C4E9035080106561C4E9065036
:1007500025622046656200F061F908B1FFF7E3FE0B
:10076000B463A66306B070BD002001404438024067
:1007700000000240106402405C000020F8B50E4604
:1007800000210446009190F83C00012807D0012088
:1007900084F83C0020688368DB0702D011E0022067
:1007A000F8BD836843F0010383602D482D4B00683A
:1007B000B0FBF3F000EB400000E0401E009000288A
:1007C000FBD120688368DB0748D0236C40F20165C9
:1007D000AB4343F4807323644068400505D5206C27
:1007E00020F4005040F480502064206CC00404D5F4
:1007F000606C20F00600606400E0616484F83C10E6
:10080000A16B1A48184DC863A16B19480864A16B05
:100810001848C86421686FF02200086020684168A9
:1008200041F0806141602068816841F4807181609D
:100830002168134632464C31A06B00F059F96868C4
:10084000C006206802D00C49884207D1816811F0A7
:10085000405F03D1816841F0804181600020F8BD94
:100860001000002040420F0000230140B9020008A0
:100870003D03000827030008002001402DE9F8434C
:1008800004464FF00009CDF8009063484FF416512C
:10089000A56D0068B0FBF1F72E6894F85C10082095
:1008A00000FA01F131420FD021680A6852070BD5D6
:1008B0000A6822F004020A6094F85C108840A8607C
:1008C000606D40F00100606594F85C104FF0010825
:1008D00008FA01F0304208D021684969090604D5B8
:1008E000A860606D40F00200606594F85C10042020
:1008F0008840304208D021680968890704D5A8607B
:10090000606D40F00400606594F85C101020884031
:10091000304218D021680968090714D5A8602068FA
:100920000168490304D50068000308D5A16C07E0FD
:100930000168C90503D4016821F008010160216C38
:1009400009B12046884794F85C1020208840304246
:1009500031D021680968C9062DD5A86094F8350002
:1009600005282068016806D0490347D500680003C0
:100970001DD4616C1CE021F0160101602068416902
:1009800021F080014161206C08B9A06C20B1206881
:10099000016821F00801016094F85C103F20884054
:1009A000A86084F8349084F83580216D1FE0E16BF5
:1009B00009B120468847606D00282BD0606DC007C4
:1009C00014D0052084F835002068016821F0010169
:1009D00001600098401C0090B84203D8206800686D
:1009E000C007F6D184F8349084F83580E16C002992
:1009F00010D001B02046BDE8F04308470168C905A2
:100A0000D5D4016821F01001016084F8349084F895
:100A10003580CCE7BDE8F883100000202DE9F041D7
:100A2000044600F067F906465CB1002584F83450AE
:100A3000022084F835002068016821F0010101607E
:100A40000DE00120BDE8F08100F054F9801B05287D
:100A500005D920206065032084F83500F2E720687E
:100A60000068C007F0D12268116820480140D4E92D
:100A700001031843D4E90336334318436369184329
:100A8000A3691843E3691843236A18430843616A5A
:100A9000042903D1D4E90B131943084310602068DB
:100AA0004069666A20F0070130460E43012704289A
:100AB0000CD1A06A0643E06A40B12046FFF7F4FC7F
:100AC00020B14020606584F83570BAE7206846613F
:100AD0002046FFF7D5FC94F85C203F2191408160CF
:100AE000656584F835700020ACE700003F8010F0A9
:100AF0002DE9F0410446866D90F834000025012868
:100B00000DD0012084F8340094F835700020012FB6
:100B100007D084F8340002252846BDE8F081022081
:100B2000FBE7022784F8357060652046FFF7E6FC96
:100B300094F85C103F208840B0602068016841F064
:100B400016010160206C20B12068016841F00801A5
:100B500001602068016841F001010160DCE70000EC
:100B60002DE9F84F00224FF0010803254FF00F0E3A
:100B70000B6808FA02F42340A34271D14E68012E9B
:100B800005D0022E03D0112E01D0122E15D1866869
:100B9000570005FA07FC26EA0C06D1F80CC00CFA3F
:100BA00007FC4CEA060CC0F808C04668A6430C795E
:100BB000C4F30014944034434460C668570005FAF7
:100BC00007FC8C6826EA0C06BC403443C4604C68C1
:100BD000022C01D0122C13D1D40800EB8404A346BC
:100BE000D4F8209054074FEAD46A0EFA0AF629EA9C
:100BF00006090E6906FA0AF646EA0906CBF82060ED
:100C000004680E7924EA0C0406F00306BE4026436D
:100C100006604C68E40056D52E4C266846F48046A3
:100C20002660246822F0030604F4804400942A4CD1
:100C30003444A446D4F808489607370F0EFA07F64E
:100C4000B443264EB04201D1002615E0244EB042F6
:100C500001D1012610E0234EB04202D102260BE062
:100C600031E0214EB04201D1032605E01F4EB042D3
:100C700001D1042600E00726BE402643CCF80868D0
:100C80001B4E34684F689C43FF0300D51C433460FF
:100C9000174E361D34684F689C43BF0300D51C4374
:100CA0003460134E083634684F689C43FF0200D509
:100CB0001C4334600E4E0C3634684F689C43BF02B0
:100CC00000D51C433460521C102AFFF451AFBDE81C
:100CD000F88F00004438024000300140000002401C
:100CE0000004024000080240000C024000100240D4
:100CF000003C01400148806870470000040000206B
:100D00000248816802781144816070470400002025
:100D10000B4810B5016841F400710160016841F4AD
:100D200080610160016841F480710160032000F07E
:100D30006FF8002000F006F800F024F8002010BD45
:100D4000003C024070B50D4D04464FF47A7128788E
:100D5000B1FBF0F00A490968B1FBF0F000F0E4FAE9
:100D600048B9102C07D200222146501E00F030F85E
:100D700000206C6070BD012070BD000004000020E8
:100D8000100000200A4808B5016841F48041016064
:100D9000006800F4804000900548001F016841F0A1
:100DA00080510160006800F08050009008BD000094
:100DB00044380240002809DB00F01F020121914065
:100DC0004009800000F1E020C0F8001170470000E9
:100DD000F0B40E4B1B680C46C3F30223C3F10705A6
:100DE000042D00D90425191D072901D2002300E094
:100DF000DB1E012606FA05F1491E214099409E405E
:100E0000761E16403143F0BC00F02DBB0CED00E027
:100E1000064900F0070208684FF6FF03184040EA51
:100E20000220034A10430860704700000CED00E008
:100E30000000FA052DE9F0470E46050065D0DFF801
:100E40001481D8F80000F7B200F00F00B04207D2CA
:100E500088F80070D8F8000000F00F00B04254D1BC
:100E600028683D4C810712D5400703D5206840F41F
:100E7000E05020602878000703D5206840F46040E7
:100E800020602068A96820F0F000084320602878DE
:100E9000C0072DD0304968680839012812D00228CF
:100EA00013D0032811D00968890700292DDA216899
:100EB00021F0030101432160FFF71CFF814641F24D
:100EC000883A0EE009688903EFE709688901ECE7D1
:100ED000FFF710FFA0EB0901514502D90320BDE83F
:100EE000F0872068696800F00C00B0EB810FEFD14B
:100EF000D8F80010404601F00F01B14207D9077041
:100F0000006800F00F00B04201D00120E7E7287828
:100F1000400705D52068E96820F4E05008432060C8
:100F20002878000706D52068296920F4604040EA47
:100F3000C100206000F018F82168084AC1F30311CD
:100F4000515CC8400649086006480068FFF7FAFE91
:100F50000020C4E7003C02400838024004150008A5
:100F60001000002008000020154810B5006810F09F
:100F70000C02144813D01449042A0FD0082A0ED1A9
:100F80000F4C241F2268236802F03F025B0207D542
:100F90002068C0F38810A0FB010106E0084610BDE0
:100FA0002168C1F38811A1FB00010023FFF710F9AC
:100FB0002168C1F30141491C4900B0FBF1F010BDAB
:100FC000083802400024F40040787D012DE9F84FF4
:100FD000040076D02078DFF838A3CE4DC00749D082
:100FE000DAF800105046C1F38101012908D00068E9
:100FF000C0F3810002280AD1281D0068400206D5EE
:101000002868800336D560680028E2D032E0606846
:10101000B0F5803F10D0B0F5A02F286810D020F494
:1010200080302860286820F4802028606068A0B1A3
:10103000FFF760FE06460CE0286840F48030F4E7D5
:1010400040F480202860F7E7FFF754FE801B6428F7
:1010500073D828688003F7D50CE0FFF74BFE0646EF
:1010600005E000BFFFF746FE801B6428F0D8286823
:101070008003F7D42078DFF8A08280074FF00009C2
:101080003ED5DAF80010504611F00C0F09D0006878
:10109000C0F3810002280BD19D48001F0068400268
:1010A00006D42868800715D5E068012809D111E029
:1010B000E068B8B10120C8F80000FFF71BFE064643
:1010C00005E020E1FFF716FE801B0228C0D8286843
:1010D0008007F7D52868216920F0F80040EAC100B0
:1010E00028600DE0C8F80090FFF704FE064604E013
:1010F000FFF700FE801B02281FD828688007F7D45E
:101100002078000722D5824E844861696C3671B11F
:1011100001210160FFF7EEFD074604E0FFF7EAFD5D
:10112000C01B022809D830688007F7D50EE0C0F848
:101130000090FFF7DFFD074605E082E0FFF7DAFDEC
:10114000C01B02287DD830688007F7D4207840077C
:1011500068D5DFF8BCB100270BF1380BDBF80000D5
:10116000C0000BD4DBF8001041F08051CBF8001028
:10117000DBF80000012700F080500090684E3068D6
:10118000C00510D4306840F480703060FFF7B2FDC5
:10119000009005E0FFF7AEFD0099401A022850D8F4
:1011A0003068C005F6D55A4EA068683601280FD0C1
:1011B0000528306810D020F001003060306820F041
:1011C00004003060A068B8B1FFF794FD00900FE014
:1011D000306840F00100F4E740F004003060F7E7C9
:1011E000FFF788FD0099411A41F28830814266D8A4
:1011F00030688007F4D50EE0FFF77CFD009007E033
:10120000FFF778FD0099411A41F28830814256D8A3
:1012100030688007F4D42FB1DBF8001021F0805142
:10122000CBF80010A069D0B3DAF800205146C2F321
:101230008102022A4AD00228484607D0C8F8600036
:1012400000E03CE0FFF756FD04463BE04746C8F8A7
:101250006000FFF74FFD064605E000BFFFF74AFDBF
:10126000801B02282BD828688001F7D4D4E9070115
:101270000843A16A2B4A490802EB0141626A41EA2C
:101280008211084394F82C1040EA01612048001FA5
:10129000016001203866FFF72DFD044605E034E0CB
:1012A000FFF728FD001B022809D828688001F7D520
:1012B0002BE000BFFFF71EFD001B022802D9032010
:1012C000BDE8F88F28688001F4D41EE00128F7D02B
:1012D0000868E26900F48001914214D1226A00F0AA
:1012E0003F0191420FD147F6C071626A01409142BD
:1012F00009D1A26A00F44031914204D1E16A00F0C0
:101300007060884201D00120DAE70020D8E70000B1
:10131000083802400038024000004742800E474231
:10132000007000400000FFFF10B5401EB0F1807F4C
:1013300001D3012010BD4FF0E02460610F21601740
:1013400000F091F80020A06107202061002010BD6E
:10135000FEE700007FB500251A480095019502952B
:101360001749039501604FF44031416001244FF06B
:10137000007104618160047680F820501249C0E950
:101380000A150326C661C56080F830404461FFF746
:1013900080F907200095CDE9014069460948FFF72B
:1013A000C3F800940224694606480194FFF7BCF88C
:1013B000CDE9004669460348FFF7B6F87FBD000057
:1013C00000200140140000200100000FFEE77047DC
:1013D00070477047FFF794BC10B592B03021684653
:1013E000FEF72EFF14210CA8FEF72AFF1448002454
:1013F000016841F080510160006800F08050119058
:101400001048016841F4404101600068069400F40E
:101410004040119002200090012003901020049081
:101420006846FFF7D3FD0F20CDE90C040E940F940E
:1014300000210CA81094FFF7FDFC12B010BD0000B5
:1014400040380240007000400548016841F47001D6
:10145000016003494FF00060803908607047000068
:1014600088ED00E0FEE70907090E002804DB00F123
:10147000E02080F80014704700F00F0000F1E02039
:1014800080F8141D704702E008C8121F08C1002A26
:10149000FAD170477047002001E001C1121F002AF5
:1014A000FBD1704708B5FFF733FCFFF795FF1048F5
:1014B000016841F001010160016801F00101009142
:1014C000016841F4800101600068002200F480009E
:1014D000009011463820FFF77BFC3820FFF76AFCAC
:1014E000FFF738FF032203490348FFF747F9FEE7F8
:1014F00030380240000000201400002000061016C2
:1015000000061016000000000000000001020304A5
:101510000607080934150008000000201400000028
:10152000861400084815000814000020AC040000D0
:1015300096140008000000000100000010000000E8
:08154000000000000024F4008B
:040000050800019955
:00000001FF
